{
  "_format": "hh-sol-artifact-1",
  "contractName": "LuxauNFT",
  "sourceName": "contracts/LuxauNFT.sol",
  "abi": [
    {
      "inputs": [],
      "stateMutability": "nonpayable",
      "type": "constructor"
    },
    {
      "inputs": [],
      "name": "ERC721EnumerableForbiddenBatchMint",
      "type": "error"
    },
    {
      "inputs": [
        {
          "internalType": "address",
          "name": "sender",
          "type": "address"
        },
        {
          "internalType": "uint256",
          "name": "tokenId",
          "type": "uint256"
        },
        {
          "internalType": "address",
          "name": "owner",
          "type": "address"
        }
      ],
      "name": "ERC721IncorrectOwner",
      "type": "error"
    },
    {
      "inputs": [
        {
          "internalType": "address",
          "name": "operator",
          "type": "address"
        },
        {
          "internalType": "uint256",
          "name": "tokenId",
          "type": "uint256"
        }
      ],
      "name": "ERC721InsufficientApproval",
      "type": "error"
    },
    {
      "inputs": [
        {
          "internalType": "address",
          "name": "approver",
          "type": "address"
        }
      ],
      "name": "ERC721InvalidApprover",
      "type": "error"
    },
    {
      "inputs": [
        {
          "internalType": "address",
          "name": "operator",
          "type": "address"
        }
      ],
      "name": "ERC721InvalidOperator",
      "type": "error"
    },
    {
      "inputs": [
        {
          "internalType": "address",
          "name": "owner",
          "type": "address"
        }
      ],
      "name": "ERC721InvalidOwner",
      "type": "error"
    },
    {
      "inputs": [
        {
          "internalType": "address",
          "name": "receiver",
          "type": "address"
        }
      ],
      "name": "ERC721InvalidReceiver",
      "type": "error"
    },
    {
      "inputs": [
        {
          "internalType": "address",
          "name": "sender",
          "type": "address"
        }
      ],
      "name": "ERC721InvalidSender",
      "type": "error"
    },
    {
      "inputs": [
        {
          "internalType": "uint256",
          "name": "tokenId",
          "type": "uint256"
        }
      ],
      "name": "ERC721NonexistentToken",
      "type": "error"
    },
    {
      "inputs": [
        {
          "internalType": "address",
          "name": "owner",
          "type": "address"
        },
        {
          "internalType": "uint256",
          "name": "index",
          "type": "uint256"
        }
      ],
      "name": "ERC721OutOfBoundsIndex",
      "type": "error"
    },
    {
      "inputs": [
        {
          "internalType": "address",
          "name": "owner",
          "type": "address"
        }
      ],
      "name": "OwnableInvalidOwner",
      "type": "error"
    },
    {
      "inputs": [
        {
          "internalType": "address",
          "name": "account",
          "type": "address"
        }
      ],
      "name": "OwnableUnauthorizedAccount",
      "type": "error"
    },
    {
      "anonymous": false,
      "inputs": [
        {
          "indexed": true,
          "internalType": "address",
          "name": "owner",
          "type": "address"
        },
        {
          "indexed": true,
          "internalType": "address",
          "name": "approved",
          "type": "address"
        },
        {
          "indexed": true,
          "internalType": "uint256",
          "name": "tokenId",
          "type": "uint256"
        }
      ],
      "name": "Approval",
      "type": "event"
    },
    {
      "anonymous": false,
      "inputs": [
        {
          "indexed": true,
          "internalType": "address",
          "name": "owner",
          "type": "address"
        },
        {
          "indexed": true,
          "internalType": "address",
          "name": "operator",
          "type": "address"
        },
        {
          "indexed": false,
          "internalType": "bool",
          "name": "approved",
          "type": "bool"
        }
      ],
      "name": "ApprovalForAll",
      "type": "event"
    },
    {
      "anonymous": false,
      "inputs": [
        {
          "indexed": false,
          "internalType": "uint256",
          "name": "tokenId",
          "type": "uint256"
        },
        {
          "indexed": false,
          "internalType": "address",
          "name": "from",
          "type": "address"
        },
        {
          "indexed": false,
          "internalType": "address",
          "name": "to",
          "type": "address"
        },
        {
          "indexed": false,
          "internalType": "string",
          "name": "tokenURI",
          "type": "string"
        }
      ],
      "name": "NFTMinted",
      "type": "event"
    },
    {
      "anonymous": false,
      "inputs": [
        {
          "indexed": true,
          "internalType": "address",
          "name": "previousOwner",
          "type": "address"
        },
        {
          "indexed": true,
          "internalType": "address",
          "name": "newOwner",
          "type": "address"
        }
      ],
      "name": "OwnershipTransferred",
      "type": "event"
    },
    {
      "anonymous": false,
      "inputs": [
        {
          "indexed": true,
          "internalType": "address",
          "name": "from",
          "type": "address"
        },
        {
          "indexed": true,
          "internalType": "address",
          "name": "to",
          "type": "address"
        },
        {
          "indexed": true,
          "internalType": "uint256",
          "name": "tokenId",
          "type": "uint256"
        }
      ],
      "name": "Transfer",
      "type": "event"
    },
    {
      "inputs": [
        {
          "internalType": "address",
          "name": "to",
          "type": "address"
        },
        {
          "internalType": "uint256",
          "name": "tokenId",
          "type": "uint256"
        }
      ],
      "name": "approve",
      "outputs": [],
      "stateMutability": "nonpayable",
      "type": "function"
    },
    {
      "inputs": [
        {
          "internalType": "address",
          "name": "owner",
          "type": "address"
        }
      ],
      "name": "balanceOf",
      "outputs": [
        {
          "internalType": "uint256",
          "name": "",
          "type": "uint256"
        }
      ],
      "stateMutability": "view",
      "type": "function"
    },
    {
      "inputs": [],
      "name": "baseURI",
      "outputs": [
        {
          "internalType": "string",
          "name": "",
          "type": "string"
        }
      ],
      "stateMutability": "view",
      "type": "function"
    },
    {
      "inputs": [],
      "name": "contractBalance",
      "outputs": [
        {
          "internalType": "uint256",
          "name": "",
          "type": "uint256"
        }
      ],
      "stateMutability": "view",
      "type": "function"
    },
    {
      "inputs": [
        {
          "internalType": "uint256",
          "name": "tokenId",
          "type": "uint256"
        }
      ],
      "name": "getApproved",
      "outputs": [
        {
          "internalType": "address",
          "name": "",
          "type": "address"
        }
      ],
      "stateMutability": "view",
      "type": "function"
    },
    {
      "inputs": [
        {
          "internalType": "address",
          "name": "owner",
          "type": "address"
        },
        {
          "internalType": "address",
          "name": "operator",
          "type": "address"
        }
      ],
      "name": "isApprovedForAll",
      "outputs": [
        {
          "internalType": "bool",
          "name": "",
          "type": "bool"
        }
      ],
      "stateMutability": "view",
      "type": "function"
    },
    {
      "inputs": [],
      "name": "name",
      "outputs": [
        {
          "internalType": "string",
          "name": "",
          "type": "string"
        }
      ],
      "stateMutability": "view",
      "type": "function"
    },
    {
      "inputs": [],
      "name": "owner",
      "outputs": [
        {
          "internalType": "address",
          "name": "",
          "type": "address"
        }
      ],
      "stateMutability": "view",
      "type": "function"
    },
    {
      "inputs": [
        {
          "internalType": "uint256",
          "name": "tokenId",
          "type": "uint256"
        }
      ],
      "name": "ownerOf",
      "outputs": [
        {
          "internalType": "address",
          "name": "",
          "type": "address"
        }
      ],
      "stateMutability": "view",
      "type": "function"
    },
    {
      "inputs": [],
      "name": "renounceOwnership",
      "outputs": [],
      "stateMutability": "nonpayable",
      "type": "function"
    },
    {
      "inputs": [],
      "name": "safeMint",
      "outputs": [],
      "stateMutability": "payable",
      "type": "function"
    },
    {
      "inputs": [
        {
          "internalType": "address",
          "name": "from",
          "type": "address"
        },
        {
          "internalType": "address",
          "name": "to",
          "type": "address"
        },
        {
          "internalType": "uint256",
          "name": "tokenId",
          "type": "uint256"
        }
      ],
      "name": "safeTransferFrom",
      "outputs": [],
      "stateMutability": "nonpayable",
      "type": "function"
    },
    {
      "inputs": [
        {
          "internalType": "address",
          "name": "from",
          "type": "address"
        },
        {
          "internalType": "address",
          "name": "to",
          "type": "address"
        },
        {
          "internalType": "uint256",
          "name": "tokenId",
          "type": "uint256"
        },
        {
          "internalType": "bytes",
          "name": "data",
          "type": "bytes"
        }
      ],
      "name": "safeTransferFrom",
      "outputs": [],
      "stateMutability": "nonpayable",
      "type": "function"
    },
    {
      "inputs": [
        {
          "internalType": "address",
          "name": "operator",
          "type": "address"
        },
        {
          "internalType": "bool",
          "name": "approved",
          "type": "bool"
        }
      ],
      "name": "setApprovalForAll",
      "outputs": [],
      "stateMutability": "nonpayable",
      "type": "function"
    },
    {
      "inputs": [
        {
          "internalType": "bytes4",
          "name": "interfaceId",
          "type": "bytes4"
        }
      ],
      "name": "supportsInterface",
      "outputs": [
        {
          "internalType": "bool",
          "name": "",
          "type": "bool"
        }
      ],
      "stateMutability": "view",
      "type": "function"
    },
    {
      "inputs": [],
      "name": "symbol",
      "outputs": [
        {
          "internalType": "string",
          "name": "",
          "type": "string"
        }
      ],
      "stateMutability": "view",
      "type": "function"
    },
    {
      "inputs": [
        {
          "internalType": "uint256",
          "name": "index",
          "type": "uint256"
        }
      ],
      "name": "tokenByIndex",
      "outputs": [
        {
          "internalType": "uint256",
          "name": "",
          "type": "uint256"
        }
      ],
      "stateMutability": "view",
      "type": "function"
    },
    {
      "inputs": [
        {
          "internalType": "address",
          "name": "owner",
          "type": "address"
        },
        {
          "internalType": "uint256",
          "name": "index",
          "type": "uint256"
        }
      ],
      "name": "tokenOfOwnerByIndex",
      "outputs": [
        {
          "internalType": "uint256",
          "name": "",
          "type": "uint256"
        }
      ],
      "stateMutability": "view",
      "type": "function"
    },
    {
      "inputs": [
        {
          "internalType": "uint256",
          "name": "_tokenId",
          "type": "uint256"
        }
      ],
      "name": "tokenURI",
      "outputs": [
        {
          "internalType": "string",
          "name": "",
          "type": "string"
        }
      ],
      "stateMutability": "view",
      "type": "function"
    },
    {
      "inputs": [],
      "name": "totalSupply",
      "outputs": [
        {
          "internalType": "uint256",
          "name": "",
          "type": "uint256"
        }
      ],
      "stateMutability": "view",
      "type": "function"
    },
    {
      "inputs": [
        {
          "internalType": "address",
          "name": "from",
          "type": "address"
        },
        {
          "internalType": "address",
          "name": "to",
          "type": "address"
        },
        {
          "internalType": "uint256",
          "name": "tokenId",
          "type": "uint256"
        }
      ],
      "name": "transferFrom",
      "outputs": [],
      "stateMutability": "nonpayable",
      "type": "function"
    },
    {
      "inputs": [
        {
          "internalType": "address",
          "name": "newOwner",
          "type": "address"
        }
      ],
      "name": "transferOwnership",
      "outputs": [],
      "stateMutability": "nonpayable",
      "type": "function"
    },
    {
      "inputs": [],
      "name": "withdraw",
      "outputs": [],
      "stateMutability": "nonpayable",
      "type": "function"
    },
    {
      "stateMutability": "payable",
      "type": "receive"
    }
  ],
  "bytecode": "0x60806040523480156200001157600080fd5b50336040518060400160405280600981526020017f4c75786175204e465400000000000000000000000000000000000000000000008152506040518060400160405280600381526020017f4c5558000000000000000000000000000000000000000000000000000000000081525081600090816200009091906200049d565b508060019081620000a291906200049d565b505050600073ffffffffffffffffffffffffffffffffffffffff168173ffffffffffffffffffffffffffffffffffffffff16036200011a5760006040517f1e4fbdf7000000000000000000000000000000000000000000000000000000008152600401620001119190620005c9565b60405180910390fd5b6200012b816200015d60201b60201c565b506040518060600160405280603981526020016200336060399139600b90816200015691906200049d565b50620005e6565b6000600a60009054906101000a900473ffffffffffffffffffffffffffffffffffffffff16905081600a60006101000a81548173ffffffffffffffffffffffffffffffffffffffff021916908373ffffffffffffffffffffffffffffffffffffffff1602179055508173ffffffffffffffffffffffffffffffffffffffff168173ffffffffffffffffffffffffffffffffffffffff167f8be0079c531659141344cd1fd0a4f28419497f9722a3daafe3b4186f6b6457e060405160405180910390a35050565b600081519050919050565b7f4e487b7100000000000000000000000000000000000000000000000000000000600052604160045260246000fd5b7f4e487b7100000000000000000000000000000000000000000000000000000000600052602260045260246000fd5b60006002820490506001821680620002a557607f821691505b602082108103620002bb57620002ba6200025d565b5b50919050565b60008190508160005260206000209050919050565b60006020601f8301049050919050565b600082821b905092915050565b600060088302620003257fffffffffffffffffffffffffffffffffffffffffffffffffffffffffffffffff82620002e6565b620003318683620002e6565b95508019841693508086168417925050509392505050565b6000819050919050565b6000819050919050565b60006200037e62000378620003728462000349565b62000353565b62000349565b9050919050565b6000819050919050565b6200039a836200035d565b620003b2620003a98262000385565b848454620002f3565b825550505050565b600090565b620003c9620003ba565b620003d68184846200038f565b505050565b5b81811015620003fe57620003f2600082620003bf565b600181019050620003dc565b5050565b601f8211156200044d576200041781620002c1565b6200042284620002d6565b8101602085101562000432578190505b6200044a6200044185620002d6565b830182620003db565b50505b505050565b600082821c905092915050565b6000620004726000198460080262000452565b1980831691505092915050565b60006200048d83836200045f565b9150826002028217905092915050565b620004a88262000223565b67ffffffffffffffff811115620004c457620004c36200022e565b5b620004d082546200028c565b620004dd82828562000402565b600060209050601f83116001811462000515576000841562000500578287015190505b6200050c85826200047f565b8655506200057c565b601f1984166200052586620002c1565b60005b828110156200054f5784890151825560018201915060208501945060208101905062000528565b868310156200056f57848901516200056b601f8916826200045f565b8355505b6001600288020188555050505b505050505050565b600073ffffffffffffffffffffffffffffffffffffffff82169050919050565b6000620005b18262000584565b9050919050565b620005c381620005a4565b82525050565b6000602082019050620005e06000830184620005b8565b92915050565b612d6a80620005f66000396000f3fe6080604052600436106101445760003560e01c80636871ee40116100b657806395d89b411161006f57806395d89b4114610448578063a22cb46514610473578063b88d4fde1461049c578063c87b56dd146104c5578063e985e9c514610502578063f2fde38b1461053f5761014b565b80636871ee40146103695780636c0360eb1461037357806370a082311461039e578063715018a6146103db5780638b7afe2e146103f25780638da5cb5b1461041d5761014b565b806323b872dd1161010857806323b872dd146102495780632f745c59146102725780633ccfd60b146102af57806342842e0e146102c65780634f6ccce7146102ef5780636352211e1461032c5761014b565b806301ffc9a71461015057806306fdde031461018d578063081812fc146101b8578063095ea7b3146101f557806318160ddd1461021e5761014b565b3661014b57005b600080fd5b34801561015c57600080fd5b5061017760048036038101906101729190612203565b610568565b604051610184919061224b565b60405180910390f35b34801561019957600080fd5b506101a26105e2565b6040516101af91906122f6565b60405180910390f35b3480156101c457600080fd5b506101df60048036038101906101da919061234e565b610674565b6040516101ec91906123bc565b60405180910390f35b34801561020157600080fd5b5061021c60048036038101906102179190612403565b610690565b005b34801561022a57600080fd5b506102336106a6565b6040516102409190612452565b60405180910390f35b34801561025557600080fd5b50610270600480360381019061026b919061246d565b6106b3565b005b34801561027e57600080fd5b5061029960048036038101906102949190612403565b6107b5565b6040516102a69190612452565b60405180910390f35b3480156102bb57600080fd5b506102c461085e565b005b3480156102d257600080fd5b506102ed60048036038101906102e8919061246d565b6108b6565b005b3480156102fb57600080fd5b506103166004803603810190610311919061234e565b6108d6565b6040516103239190612452565b60405180910390f35b34801561033857600080fd5b50610353600480360381019061034e919061234e565b61094c565b60405161036091906123bc565b60405180910390f35b61037161095e565b005b34801561037f57600080fd5b50610388610a2e565b60405161039591906122f6565b60405180910390f35b3480156103aa57600080fd5b506103c560048036038101906103c091906124c0565b610abc565b6040516103d29190612452565b60405180910390f35b3480156103e757600080fd5b506103f0610b76565b005b3480156103fe57600080fd5b50610407610b8a565b6040516104149190612452565b60405180910390f35b34801561042957600080fd5b50610432610b9a565b60405161043f91906123bc565b60405180910390f35b34801561045457600080fd5b5061045d610bc4565b60405161046a91906122f6565b60405180910390f35b34801561047f57600080fd5b5061049a60048036038101906104959190612519565b610c56565b005b3480156104a857600080fd5b506104c360048036038101906104be919061268e565b610c6c565b005b3480156104d157600080fd5b506104ec60048036038101906104e7919061234e565b610c89565b6040516104f991906122f6565b60405180910390f35b34801561050e57600080fd5b5061052960048036038101906105249190612711565b610cc7565b604051610536919061224b565b60405180910390f35b34801561054b57600080fd5b50610566600480360381019061056191906124c0565b610d5b565b005b60007f780e9d63000000000000000000000000000000000000000000000000000000007bffffffffffffffffffffffffffffffffffffffffffffffffffffffff1916827bffffffffffffffffffffffffffffffffffffffffffffffffffffffff191614806105db57506105da82610de1565b5b9050919050565b6060600080546105f190612780565b80601f016020809104026020016040519081016040528092919081815260200182805461061d90612780565b801561066a5780601f1061063f5761010080835404028352916020019161066a565b820191906000526020600020905b81548152906001019060200180831161064d57829003601f168201915b5050505050905090565b600061067f82610ec3565b5061068982610f4b565b9050919050565b6106a2828261069d610f88565b610f90565b5050565b6000600880549050905090565b600073ffffffffffffffffffffffffffffffffffffffff168273ffffffffffffffffffffffffffffffffffffffff16036107255760006040517f64a0ae9200000000000000000000000000000000000000000000000000000000815260040161071c91906123bc565b60405180910390fd5b60006107398383610734610f88565b610fa2565b90508373ffffffffffffffffffffffffffffffffffffffff168173ffffffffffffffffffffffffffffffffffffffff16146107af578382826040517f64283d7b0000000000000000000000000000000000000000000000000000000081526004016107a6939291906127b1565b60405180910390fd5b50505050565b60006107c083610abc565b82106108055782826040517fa57d13dc0000000000000000000000000000000000000000000000000000000081526004016107fc9291906127e8565b60405180910390fd5b600660008473ffffffffffffffffffffffffffffffffffffffff1673ffffffffffffffffffffffffffffffffffffffff168152602001908152602001600020600083815260200190815260200160002054905092915050565b6108666110bf565b61086e610b9a565b73ffffffffffffffffffffffffffffffffffffffff166108fc479081150290604051600060405180830381858888f193505050501580156108b3573d6000803e3d6000fd5b50565b6108d183838360405180602001604052806000815250610c6c565b505050565b60006108e06106a6565b8210610926576000826040517fa57d13dc00000000000000000000000000000000000000000000000000000000815260040161091d9291906127e8565b60405180910390fd5b6008828154811061093a57610939612811565b5b90600052602060002001549050919050565b600061095782610ec3565b9050919050565b655af3107a40003410156109a7576040517f08c379a000000000000000000000000000000000000000000000000000000000815260040161099e906128b2565b60405180910390fd5b6000600c60008154809291906109bc90612901565b9190505590506109cc3382611146565b6109ec3373fa6cf5581f0bd92ae9b224099e09b83e464da7626001611164565b7fc8e51ba44d56c605bd20ad8cb591cfa3f9982310c747620ce20f77fd612bb39b81600033600b604051610a2394939291906129e2565b60405180910390a150565b600b8054610a3b90612780565b80601f0160208091040260200160405190810160405280929190818152602001828054610a6790612780565b8015610ab45780601f10610a8957610100808354040283529160200191610ab4565b820191906000526020600020905b815481529060010190602001808311610a9757829003601f168201915b505050505081565b60008073ffffffffffffffffffffffffffffffffffffffff168273ffffffffffffffffffffffffffffffffffffffff1603610b2f5760006040517f89c62b64000000000000000000000000000000000000000000000000000000008152600401610b2691906123bc565b60405180910390fd5b600360008373ffffffffffffffffffffffffffffffffffffffff1673ffffffffffffffffffffffffffffffffffffffff168152602001908152602001600020549050919050565b610b7e6110bf565b610b8860006112d3565b565b6000610b946110bf565b47905090565b6000600a60009054906101000a900473ffffffffffffffffffffffffffffffffffffffff16905090565b606060018054610bd390612780565b80601f0160208091040260200160405190810160405280929190818152602001828054610bff90612780565b8015610c4c5780601f10610c2157610100808354040283529160200191610c4c565b820191906000526020600020905b815481529060010190602001808311610c2f57829003601f168201915b5050505050905090565b610c68610c61610f88565b8383611164565b5050565b610c778484846106b3565b610c8384848484611399565b50505050565b6060610c9482610ec3565b50600b610ca083611550565b604051602001610cb1929190612b85565b6040516020818303038152906040529050919050565b6000600560008473ffffffffffffffffffffffffffffffffffffffff1673ffffffffffffffffffffffffffffffffffffffff16815260200190815260200160002060008373ffffffffffffffffffffffffffffffffffffffff1673ffffffffffffffffffffffffffffffffffffffff16815260200190815260200160002060009054906101000a900460ff16905092915050565b610d636110bf565b600073ffffffffffffffffffffffffffffffffffffffff168173ffffffffffffffffffffffffffffffffffffffff1603610dd55760006040517f1e4fbdf7000000000000000000000000000000000000000000000000000000008152600401610dcc91906123bc565b60405180910390fd5b610dde816112d3565b50565b60007f80ac58cd000000000000000000000000000000000000000000000000000000007bffffffffffffffffffffffffffffffffffffffffffffffffffffffff1916827bffffffffffffffffffffffffffffffffffffffffffffffffffffffff19161480610eac57507f5b5e139f000000000000000000000000000000000000000000000000000000007bffffffffffffffffffffffffffffffffffffffffffffffffffffffff1916827bffffffffffffffffffffffffffffffffffffffffffffffffffffffff1916145b80610ebc5750610ebb8261161e565b5b9050919050565b600080610ecf83611688565b9050600073ffffffffffffffffffffffffffffffffffffffff168173ffffffffffffffffffffffffffffffffffffffff1603610f4257826040517f7e273289000000000000000000000000000000000000000000000000000000008152600401610f399190612452565b60405180910390fd5b80915050919050565b60006004600083815260200190815260200160002060009054906101000a900473ffffffffffffffffffffffffffffffffffffffff169050919050565b600033905090565b610f9d83838360016116c5565b505050565b600080610fb085858561188a565b9050600073ffffffffffffffffffffffffffffffffffffffff168173ffffffffffffffffffffffffffffffffffffffff1603610ff457610fef84611aa4565b611033565b8473ffffffffffffffffffffffffffffffffffffffff168173ffffffffffffffffffffffffffffffffffffffff1614611032576110318185611aed565b5b5b600073ffffffffffffffffffffffffffffffffffffffff168573ffffffffffffffffffffffffffffffffffffffff16036110755761107084611c4e565b6110b4565b8473ffffffffffffffffffffffffffffffffffffffff168173ffffffffffffffffffffffffffffffffffffffff16146110b3576110b28585611d1f565b5b5b809150509392505050565b6110c7610f88565b73ffffffffffffffffffffffffffffffffffffffff166110e5610b9a565b73ffffffffffffffffffffffffffffffffffffffff161461114457611108610f88565b6040517f118cdaa700000000000000000000000000000000000000000000000000000000815260040161113b91906123bc565b60405180910390fd5b565b611160828260405180602001604052806000815250611daa565b5050565b600073ffffffffffffffffffffffffffffffffffffffff168273ffffffffffffffffffffffffffffffffffffffff16036111d557816040517f5b08ba180000000000000000000000000000000000000000000000000000000081526004016111cc91906123bc565b60405180910390fd5b80600560008573ffffffffffffffffffffffffffffffffffffffff1673ffffffffffffffffffffffffffffffffffffffff16815260200190815260200160002060008473ffffffffffffffffffffffffffffffffffffffff1673ffffffffffffffffffffffffffffffffffffffff16815260200190815260200160002060006101000a81548160ff0219169083151502179055508173ffffffffffffffffffffffffffffffffffffffff168373ffffffffffffffffffffffffffffffffffffffff167f17307eab39ab6107e8899845ad3d59bd9653f200f220920489ca2b5937696c31836040516112c6919061224b565b60405180910390a3505050565b6000600a60009054906101000a900473ffffffffffffffffffffffffffffffffffffffff16905081600a60006101000a81548173ffffffffffffffffffffffffffffffffffffffff021916908373ffffffffffffffffffffffffffffffffffffffff1602179055508173ffffffffffffffffffffffffffffffffffffffff168173ffffffffffffffffffffffffffffffffffffffff167f8be0079c531659141344cd1fd0a4f28419497f9722a3daafe3b4186f6b6457e060405160405180910390a35050565b60008373ffffffffffffffffffffffffffffffffffffffff163b111561154a578273ffffffffffffffffffffffffffffffffffffffff1663150b7a026113dd610f88565b8685856040518563ffffffff1660e01b81526004016113ff9493929190612c14565b6020604051808303816000875af192505050801561143b57506040513d601f19601f820116820180604052508101906114389190612c75565b60015b6114bf573d806000811461146b576040519150601f19603f3d011682016040523d82523d6000602084013e611470565b606091505b5060008151036114b757836040517f64a0ae920000000000000000000000000000000000000000000000000000000081526004016114ae91906123bc565b60405180910390fd5b805181602001fd5b63150b7a0260e01b7bffffffffffffffffffffffffffffffffffffffffffffffffffffffff1916817bffffffffffffffffffffffffffffffffffffffffffffffffffffffff19161461154857836040517f64a0ae9200000000000000000000000000000000000000000000000000000000815260040161153f91906123bc565b60405180910390fd5b505b50505050565b60606000600161155f84611dc6565b01905060008167ffffffffffffffff81111561157e5761157d612563565b5b6040519080825280601f01601f1916602001820160405280156115b05781602001600182028036833780820191505090505b509050600082602001820190505b600115611613578080600190039150507f3031323334353637383961626364656600000000000000000000000000000000600a86061a8153600a858161160757611606612ca2565b5b049450600085036115be575b819350505050919050565b60007f01ffc9a7000000000000000000000000000000000000000000000000000000007bffffffffffffffffffffffffffffffffffffffffffffffffffffffff1916827bffffffffffffffffffffffffffffffffffffffffffffffffffffffff1916149050919050565b60006002600083815260200190815260200160002060009054906101000a900473ffffffffffffffffffffffffffffffffffffffff169050919050565b80806116fe5750600073ffffffffffffffffffffffffffffffffffffffff168273ffffffffffffffffffffffffffffffffffffffff1614155b1561183257600061170e84610ec3565b9050600073ffffffffffffffffffffffffffffffffffffffff168373ffffffffffffffffffffffffffffffffffffffff161415801561177957508273ffffffffffffffffffffffffffffffffffffffff168173ffffffffffffffffffffffffffffffffffffffff1614155b801561178c575061178a8184610cc7565b155b156117ce57826040517fa9fbf51f0000000000000000000000000000000000000000000000000000000081526004016117c591906123bc565b60405180910390fd5b811561183057838573ffffffffffffffffffffffffffffffffffffffff168273ffffffffffffffffffffffffffffffffffffffff167f8c5be1e5ebec7d5bd14f71427d1e84f3dd0314c0f7b2291e5b200ac8c7c3b92560405160405180910390a45b505b836004600085815260200190815260200160002060006101000a81548173ffffffffffffffffffffffffffffffffffffffff021916908373ffffffffffffffffffffffffffffffffffffffff16021790555050505050565b60008061189684611688565b9050600073ffffffffffffffffffffffffffffffffffffffff168373ffffffffffffffffffffffffffffffffffffffff16146118d8576118d7818486611f19565b5b600073ffffffffffffffffffffffffffffffffffffffff168173ffffffffffffffffffffffffffffffffffffffff16146119695761191a6000856000806116c5565b6001600360008373ffffffffffffffffffffffffffffffffffffffff1673ffffffffffffffffffffffffffffffffffffffff168152602001908152602001600020600082825403925050819055505b600073ffffffffffffffffffffffffffffffffffffffff168573ffffffffffffffffffffffffffffffffffffffff16146119ec576001600360008773ffffffffffffffffffffffffffffffffffffffff1673ffffffffffffffffffffffffffffffffffffffff168152602001908152602001600020600082825401925050819055505b846002600086815260200190815260200160002060006101000a81548173ffffffffffffffffffffffffffffffffffffffff021916908373ffffffffffffffffffffffffffffffffffffffff160217905550838573ffffffffffffffffffffffffffffffffffffffff168273ffffffffffffffffffffffffffffffffffffffff167fddf252ad1be2c89b69c2b068fc378daa952ba7f163c4a11628f55a4df523b3ef60405160405180910390a4809150509392505050565b6008805490506009600083815260200190815260200160002081905550600881908060018154018082558091505060019003906000526020600020016000909190919091505550565b6000611af883610abc565b9050600060076000848152602001908152602001600020549050818114611bdd576000600660008673ffffffffffffffffffffffffffffffffffffffff1673ffffffffffffffffffffffffffffffffffffffff168152602001908152602001600020600084815260200190815260200160002054905080600660008773ffffffffffffffffffffffffffffffffffffffff1673ffffffffffffffffffffffffffffffffffffffff168152602001908152602001600020600084815260200190815260200160002081905550816007600083815260200190815260200160002081905550505b6007600084815260200190815260200160002060009055600660008573ffffffffffffffffffffffffffffffffffffffff1673ffffffffffffffffffffffffffffffffffffffff16815260200190815260200160002060008381526020019081526020016000206000905550505050565b60006001600880549050611c629190612cd1565b9050600060096000848152602001908152602001600020549050600060088381548110611c9257611c91612811565b5b906000526020600020015490508060088381548110611cb457611cb3612811565b5b906000526020600020018190555081600960008381526020019081526020016000208190555060096000858152602001908152602001600020600090556008805480611d0357611d02612d05565b5b6001900381819060005260206000200160009055905550505050565b60006001611d2c84610abc565b611d369190612cd1565b905081600660008573ffffffffffffffffffffffffffffffffffffffff1673ffffffffffffffffffffffffffffffffffffffff168152602001908152602001600020600083815260200190815260200160002081905550806007600084815260200190815260200160002081905550505050565b611db48383611fdd565b611dc16000848484611399565b505050565b600080600090507a184f03e93ff9f4daa797ed6e38ed64bf6a1f0100000000000000008310611e24577a184f03e93ff9f4daa797ed6e38ed64bf6a1f0100000000000000008381611e1a57611e19612ca2565b5b0492506040810190505b6d04ee2d6d415b85acef81000000008310611e61576d04ee2d6d415b85acef81000000008381611e5757611e56612ca2565b5b0492506020810190505b662386f26fc100008310611e9057662386f26fc100008381611e8657611e85612ca2565b5b0492506010810190505b6305f5e1008310611eb9576305f5e1008381611eaf57611eae612ca2565b5b0492506008810190505b6127108310611ede576127108381611ed457611ed3612ca2565b5b0492506004810190505b60648310611f015760648381611ef757611ef6612ca2565b5b0492506002810190505b600a8310611f10576001810190505b80915050919050565b611f248383836120d6565b611fd857600073ffffffffffffffffffffffffffffffffffffffff168373ffffffffffffffffffffffffffffffffffffffff1603611f9957806040517f7e273289000000000000000000000000000000000000000000000000000000008152600401611f909190612452565b60405180910390fd5b81816040517f177e802f000000000000000000000000000000000000000000000000000000008152600401611fcf9291906127e8565b60405180910390fd5b505050565b600073ffffffffffffffffffffffffffffffffffffffff168273ffffffffffffffffffffffffffffffffffffffff160361204f5760006040517f64a0ae9200000000000000000000000000000000000000000000000000000000815260040161204691906123bc565b60405180910390fd5b600061205d83836000610fa2565b9050600073ffffffffffffffffffffffffffffffffffffffff168173ffffffffffffffffffffffffffffffffffffffff16146120d15760006040517f73c6ac6e0000000000000000000000000000000000000000000000000000000081526004016120c891906123bc565b60405180910390fd5b505050565b60008073ffffffffffffffffffffffffffffffffffffffff168373ffffffffffffffffffffffffffffffffffffffff161415801561218e57508273ffffffffffffffffffffffffffffffffffffffff168473ffffffffffffffffffffffffffffffffffffffff16148061214f575061214e8484610cc7565b5b8061218d57508273ffffffffffffffffffffffffffffffffffffffff1661217583610f4b565b73ffffffffffffffffffffffffffffffffffffffff16145b5b90509392505050565b6000604051905090565b600080fd5b600080fd5b60007fffffffff0000000000000000000000000000000000000000000000000000000082169050919050565b6121e0816121ab565b81146121eb57600080fd5b50565b6000813590506121fd816121d7565b92915050565b600060208284031215612219576122186121a1565b5b6000612227848285016121ee565b91505092915050565b60008115159050919050565b61224581612230565b82525050565b6000602082019050612260600083018461223c565b92915050565b600081519050919050565b600082825260208201905092915050565b60005b838110156122a0578082015181840152602081019050612285565b60008484015250505050565b6000601f19601f8301169050919050565b60006122c882612266565b6122d28185612271565b93506122e2818560208601612282565b6122eb816122ac565b840191505092915050565b6000602082019050818103600083015261231081846122bd565b905092915050565b6000819050919050565b61232b81612318565b811461233657600080fd5b50565b60008135905061234881612322565b92915050565b600060208284031215612364576123636121a1565b5b600061237284828501612339565b91505092915050565b600073ffffffffffffffffffffffffffffffffffffffff82169050919050565b60006123a68261237b565b9050919050565b6123b68161239b565b82525050565b60006020820190506123d160008301846123ad565b92915050565b6123e08161239b565b81146123eb57600080fd5b50565b6000813590506123fd816123d7565b92915050565b6000806040838503121561241a576124196121a1565b5b6000612428858286016123ee565b925050602061243985828601612339565b9150509250929050565b61244c81612318565b82525050565b60006020820190506124676000830184612443565b92915050565b600080600060608486031215612486576124856121a1565b5b6000612494868287016123ee565b93505060206124a5868287016123ee565b92505060406124b686828701612339565b9150509250925092565b6000602082840312156124d6576124d56121a1565b5b60006124e4848285016123ee565b91505092915050565b6124f681612230565b811461250157600080fd5b50565b600081359050612513816124ed565b92915050565b600080604083850312156125305761252f6121a1565b5b600061253e858286016123ee565b925050602061254f85828601612504565b9150509250929050565b600080fd5b600080fd5b7f4e487b7100000000000000000000000000000000000000000000000000000000600052604160045260246000fd5b61259b826122ac565b810181811067ffffffffffffffff821117156125ba576125b9612563565b5b80604052505050565b60006125cd612197565b90506125d98282612592565b919050565b600067ffffffffffffffff8211156125f9576125f8612563565b5b612602826122ac565b9050602081019050919050565b82818337600083830152505050565b600061263161262c846125de565b6125c3565b90508281526020810184848401111561264d5761264c61255e565b5b61265884828561260f565b509392505050565b600082601f83011261267557612674612559565b5b813561268584826020860161261e565b91505092915050565b600080600080608085870312156126a8576126a76121a1565b5b60006126b6878288016123ee565b94505060206126c7878288016123ee565b93505060406126d887828801612339565b925050606085013567ffffffffffffffff8111156126f9576126f86121a6565b5b61270587828801612660565b91505092959194509250565b60008060408385031215612728576127276121a1565b5b6000612736858286016123ee565b9250506020612747858286016123ee565b9150509250929050565b7f4e487b7100000000000000000000000000000000000000000000000000000000600052602260045260246000fd5b6000600282049050600182168061279857607f821691505b6020821081036127ab576127aa612751565b5b50919050565b60006060820190506127c660008301866123ad565b6127d36020830185612443565b6127e060408301846123ad565b949350505050565b60006040820190506127fd60008301856123ad565b61280a6020830184612443565b9392505050565b7f4e487b7100000000000000000000000000000000000000000000000000000000600052603260045260246000fd5b7f4d696e696d756d20707269636520746f206d696e7420697320302e303030312060008201527f4554480000000000000000000000000000000000000000000000000000000000602082015250565b600061289c602383612271565b91506128a782612840565b604082019050919050565b600060208201905081810360008301526128cb8161288f565b9050919050565b7f4e487b7100000000000000000000000000000000000000000000000000000000600052601160045260246000fd5b600061290c82612318565b91507fffffffffffffffffffffffffffffffffffffffffffffffffffffffffffffffff820361293e5761293d6128d2565b5b600182019050919050565b60008190508160005260206000209050919050565b6000815461296b81612780565b6129758186612271565b9450600182166000811461299057600181146129a6576129d9565b60ff1983168652811515602002860193506129d9565b6129af85612949565b60005b838110156129d1578154818901526001820191506020810190506129b2565b808801955050505b50505092915050565b60006080820190506129f76000830187612443565b612a0460208301866123ad565b612a1160408301856123ad565b8181036060830152612a23818461295e565b905095945050505050565b600081905092915050565b60008154612a4681612780565b612a508186612a2e565b94506001821660008114612a6b5760018114612a8057612ab3565b60ff1983168652811515820286019350612ab3565b612a8985612949565b60005b83811015612aab57815481890152600182019150602081019050612a8c565b838801955050505b50505092915050565b7f2f70726f647563745f0000000000000000000000000000000000000000000000600082015250565b6000612af2600983612a2e565b9150612afd82612abc565b600982019050919050565b6000612b1382612266565b612b1d8185612a2e565b9350612b2d818560208601612282565b80840191505092915050565b7f2e706e6700000000000000000000000000000000000000000000000000000000600082015250565b6000612b6f600483612a2e565b9150612b7a82612b39565b600482019050919050565b6000612b918285612a39565b9150612b9c82612ae5565b9150612ba88284612b08565b9150612bb382612b62565b91508190509392505050565b600081519050919050565b600082825260208201905092915050565b6000612be682612bbf565b612bf08185612bca565b9350612c00818560208601612282565b612c09816122ac565b840191505092915050565b6000608082019050612c2960008301876123ad565b612c3660208301866123ad565b612c436040830185612443565b8181036060830152612c558184612bdb565b905095945050505050565b600081519050612c6f816121d7565b92915050565b600060208284031215612c8b57612c8a6121a1565b5b6000612c9984828501612c60565b91505092915050565b7f4e487b7100000000000000000000000000000000000000000000000000000000600052601260045260246000fd5b6000612cdc82612318565b9150612ce783612318565b9250828203905081811115612cff57612cfe6128d2565b5b92915050565b7f4e487b7100000000000000000000000000000000000000000000000000000000600052603160045260246000fdfea2646970667358221220533d7889368d4b773b4713340a96ff4ac1d468e05314bbfa8784fc2848eb247864736f6c63430008180033697066733a2f2f516d545a4139796b6f336753356d385659577350554a374e3159434b46546a676367507542416372777865384b422f696d67",
  "linkReferences": {},
  "deployedLinkReferences": {}
}