{
  "_format": "hh-sol-artifact-1",
  "contractName": "LuxauMarketplace",
  "sourceName": "contracts/LuxauMarketplace.sol",
  "abi": [
    {
      "inputs": [],
      "stateMutability": "payable",
      "type": "constructor"
    },
    {
      "inputs": [
        {
          "internalType": "address",
          "name": "owner",
          "type": "address"
        }
      ],
      "name": "OwnableInvalidOwner",
      "type": "error"
    },
    {
      "inputs": [
        {
          "internalType": "address",
          "name": "account",
          "type": "address"
        }
      ],
      "name": "OwnableUnauthorizedAccount",
      "type": "error"
    },
    {
      "inputs": [],
      "name": "ReentrancyGuardReentrantCall",
      "type": "error"
    },
    {
      "anonymous": false,
      "inputs": [
        {
          "indexed": false,
          "internalType": "address",
          "name": "brandAddress",
          "type": "address"
        }
      ],
      "name": "BrandRegistered",
      "type": "event"
    },
    {
      "anonymous": false,
      "inputs": [
        {
          "indexed": false,
          "internalType": "address",
          "name": "clientAddress",
          "type": "address"
        }
      ],
      "name": "ClientRegistered",
      "type": "event"
    },
    {
      "anonymous": false,
      "inputs": [
        {
          "indexed": false,
          "internalType": "address",
          "name": "brandAddress",
          "type": "address"
        },
        {
          "indexed": false,
          "internalType": "uint256",
          "name": "tokenId",
          "type": "uint256"
        },
        {
          "indexed": false,
          "internalType": "uint256",
          "name": "price",
          "type": "uint256"
        },
        {
          "indexed": false,
          "internalType": "string",
          "name": "description",
          "type": "string"
        }
      ],
      "name": "NFTCreated",
      "type": "event"
    },
    {
      "anonymous": false,
      "inputs": [
        {
          "indexed": false,
          "internalType": "address",
          "name": "from",
          "type": "address"
        },
        {
          "indexed": false,
          "internalType": "address",
          "name": "to",
          "type": "address"
        },
        {
          "indexed": false,
          "internalType": "uint256",
          "name": "id",
          "type": "uint256"
        },
        {
          "indexed": false,
          "internalType": "uint256",
          "name": "price",
          "type": "uint256"
        }
      ],
      "name": "NFTSold",
      "type": "event"
    },
    {
      "anonymous": false,
      "inputs": [
        {
          "indexed": true,
          "internalType": "address",
          "name": "previousOwner",
          "type": "address"
        },
        {
          "indexed": true,
          "internalType": "address",
          "name": "newOwner",
          "type": "address"
        }
      ],
      "name": "OwnershipTransferred",
      "type": "event"
    },
    {
      "inputs": [
        {
          "internalType": "address",
          "name": "",
          "type": "address"
        },
        {
          "internalType": "uint256",
          "name": "",
          "type": "uint256"
        }
      ],
      "name": "brandNFTs",
      "outputs": [
        {
          "internalType": "contract IERC721",
          "name": "NFTAddress",
          "type": "address"
        },
        {
          "internalType": "address payable",
          "name": "seller",
          "type": "address"
        },
        {
          "internalType": "uint256",
          "name": "id",
          "type": "uint256"
        },
        {
          "internalType": "uint256",
          "name": "price",
          "type": "uint256"
        },
        {
          "internalType": "string",
          "name": "description",
          "type": "string"
        },
        {
          "internalType": "bool",
          "name": "isSold",
          "type": "bool"
        }
      ],
      "stateMutability": "view",
      "type": "function"
    },
    {
      "inputs": [
        {
          "internalType": "address",
          "name": "_brandAddress",
          "type": "address"
        },
        {
          "internalType": "uint256",
          "name": "_tokenId",
          "type": "uint256"
        }
      ],
      "name": "buyNFT",
      "outputs": [],
      "stateMutability": "payable",
      "type": "function"
    },
    {
      "inputs": [
        {
          "internalType": "address",
          "name": "",
          "type": "address"
        },
        {
          "internalType": "uint256",
          "name": "",
          "type": "uint256"
        }
      ],
      "name": "clientNFTs",
      "outputs": [
        {
          "internalType": "contract IERC721",
          "name": "NFTAddress",
          "type": "address"
        },
        {
          "internalType": "address payable",
          "name": "seller",
          "type": "address"
        },
        {
          "internalType": "uint256",
          "name": "id",
          "type": "uint256"
        },
        {
          "internalType": "uint256",
          "name": "price",
          "type": "uint256"
        },
        {
          "internalType": "string",
          "name": "description",
          "type": "string"
        },
        {
          "internalType": "bool",
          "name": "isSold",
          "type": "bool"
        }
      ],
      "stateMutability": "view",
      "type": "function"
    },
    {
      "inputs": [],
      "name": "contractBalance",
      "outputs": [
        {
          "internalType": "uint256",
          "name": "",
          "type": "uint256"
        }
      ],
      "stateMutability": "view",
      "type": "function"
    },
    {
      "inputs": [
        {
          "internalType": "contract IERC721",
          "name": "_NFTAddress",
          "type": "address"
        },
        {
          "internalType": "uint256",
          "name": "_tokenId",
          "type": "uint256"
        },
        {
          "internalType": "uint256",
          "name": "_price",
          "type": "uint256"
        },
        {
          "internalType": "string",
          "name": "_description",
          "type": "string"
        }
      ],
      "name": "createNFT",
      "outputs": [],
      "stateMutability": "payable",
      "type": "function"
    },
    {
      "inputs": [
        {
          "internalType": "address",
          "name": "",
          "type": "address"
        },
        {
          "internalType": "address",
          "name": "",
          "type": "address"
        },
        {
          "internalType": "uint256",
          "name": "",
          "type": "uint256"
        },
        {
          "internalType": "bytes",
          "name": "",
          "type": "bytes"
        }
      ],
      "name": "onERC721Received",
      "outputs": [
        {
          "internalType": "bytes4",
          "name": "",
          "type": "bytes4"
        }
      ],
      "stateMutability": "pure",
      "type": "function"
    },
    {
      "inputs": [],
      "name": "owner",
      "outputs": [
        {
          "internalType": "address",
          "name": "",
          "type": "address"
        }
      ],
      "stateMutability": "view",
      "type": "function"
    },
    {
      "inputs": [
        {
          "internalType": "address",
          "name": "_address",
          "type": "address"
        },
        {
          "internalType": "string",
          "name": "_brandName",
          "type": "string"
        }
      ],
      "name": "registerBrand",
      "outputs": [],
      "stateMutability": "nonpayable",
      "type": "function"
    },
    {
      "inputs": [
        {
          "internalType": "address",
          "name": "_address",
          "type": "address"
        }
      ],
      "name": "registerClient",
      "outputs": [],
      "stateMutability": "nonpayable",
      "type": "function"
    },
    {
      "inputs": [
        {
          "internalType": "address",
          "name": "",
          "type": "address"
        }
      ],
      "name": "registeredBrands",
      "outputs": [
        {
          "internalType": "address",
          "name": "brandAddress",
          "type": "address"
        },
        {
          "internalType": "string",
          "name": "brandName",
          "type": "string"
        },
        {
          "internalType": "bool",
          "name": "isRegistered",
          "type": "bool"
        }
      ],
      "stateMutability": "view",
      "type": "function"
    },
    {
      "inputs": [
        {
          "internalType": "address",
          "name": "",
          "type": "address"
        }
      ],
      "name": "registeredClients",
      "outputs": [
        {
          "internalType": "address",
          "name": "clientAddress",
          "type": "address"
        },
        {
          "internalType": "bool",
          "name": "isRegistered",
          "type": "bool"
        }
      ],
      "stateMutability": "view",
      "type": "function"
    },
    {
      "inputs": [],
      "name": "renounceOwnership",
      "outputs": [],
      "stateMutability": "nonpayable",
      "type": "function"
    },
    {
      "inputs": [],
      "name": "totalTokens",
      "outputs": [
        {
          "internalType": "uint256",
          "name": "",
          "type": "uint256"
        }
      ],
      "stateMutability": "view",
      "type": "function"
    },
    {
      "inputs": [
        {
          "internalType": "address",
          "name": "newOwner",
          "type": "address"
        }
      ],
      "name": "transferOwnership",
      "outputs": [],
      "stateMutability": "nonpayable",
      "type": "function"
    },
    {
      "inputs": [],
      "name": "withdraw",
      "outputs": [],
      "stateMutability": "nonpayable",
      "type": "function"
    },
    {
      "stateMutability": "payable",
      "type": "receive"
    }
  ],
  "bytecode": "0x60806040526001600655600060075533600073ffffffffffffffffffffffffffffffffffffffff168173ffffffffffffffffffffffffffffffffffffffff1603620000845760006040517f1e4fbdf70000000000000000000000000000000000000000000000000000000081526004016200007b91906200030f565b60405180910390fd5b62000095816200020660201b60201c565b506001808190555033600260003373ffffffffffffffffffffffffffffffffffffffff1673ffffffffffffffffffffffffffffffffffffffff16815260200190815260200160002060000160006101000a81548173ffffffffffffffffffffffffffffffffffffffff021916908373ffffffffffffffffffffffffffffffffffffffff1602179055506040518060400160405280601881526020017f4c75786175204c6966657374796c6520456c6567616e63650000000000000000815250600260003373ffffffffffffffffffffffffffffffffffffffff1673ffffffffffffffffffffffffffffffffffffffff1681526020019081526020016000206001019081620001a49190620005a6565b506001600260003373ffffffffffffffffffffffffffffffffffffffff1673ffffffffffffffffffffffffffffffffffffffff16815260200190815260200160002060020160006101000a81548160ff0219169083151502179055506200068d565b60008060009054906101000a900473ffffffffffffffffffffffffffffffffffffffff169050816000806101000a81548173ffffffffffffffffffffffffffffffffffffffff021916908373ffffffffffffffffffffffffffffffffffffffff1602179055508173ffffffffffffffffffffffffffffffffffffffff168173ffffffffffffffffffffffffffffffffffffffff167f8be0079c531659141344cd1fd0a4f28419497f9722a3daafe3b4186f6b6457e060405160405180910390a35050565b600073ffffffffffffffffffffffffffffffffffffffff82169050919050565b6000620002f782620002ca565b9050919050565b6200030981620002ea565b82525050565b6000602082019050620003266000830184620002fe565b92915050565b600081519050919050565b7f4e487b7100000000000000000000000000000000000000000000000000000000600052604160045260246000fd5b7f4e487b7100000000000000000000000000000000000000000000000000000000600052602260045260246000fd5b60006002820490506001821680620003ae57607f821691505b602082108103620003c457620003c362000366565b5b50919050565b60008190508160005260206000209050919050565b60006020601f8301049050919050565b600082821b905092915050565b6000600883026200042e7fffffffffffffffffffffffffffffffffffffffffffffffffffffffffffffffff82620003ef565b6200043a8683620003ef565b95508019841693508086168417925050509392505050565b6000819050919050565b6000819050919050565b600062000487620004816200047b8462000452565b6200045c565b62000452565b9050919050565b6000819050919050565b620004a38362000466565b620004bb620004b2826200048e565b848454620003fc565b825550505050565b600090565b620004d2620004c3565b620004df81848462000498565b505050565b5b818110156200050757620004fb600082620004c8565b600181019050620004e5565b5050565b601f82111562000556576200052081620003ca565b6200052b84620003df565b810160208510156200053b578190505b620005536200054a85620003df565b830182620004e4565b50505b505050565b600082821c905092915050565b60006200057b600019846008026200055b565b1980831691505092915050565b600062000596838362000568565b9150826002028217905092915050565b620005b1826200032c565b67ffffffffffffffff811115620005cd57620005cc62000337565b5b620005d9825462000395565b620005e68282856200050b565b600060209050601f8311600181146200061e576000841562000609578287015190505b62000615858262000588565b86555062000685565b601f1984166200062e86620003ca565b60005b82811015620006585784890151825560018201915060208501945060208101905062000631565b8683101562000678578489015162000674601f89168262000568565b8355505b6001600288020188555050505b505050505050565b61291e806200069d6000396000f3fe6080604052600436106100ec5760003560e01c8063715018a61161008a5780638e814c46116100595780638e814c46146102f5578063a82ba76f14610311578063e31974b61461032d578063f2fde38b1461036f576100f3565b8063715018a61461025d5780637e1c0c09146102745780638b7afe2e1461029f5780638da5cb5b146102ca576100f3565b80633ccfd60b116100c65780633ccfd60b1461019c57806342a67b7f146101b35780636dab57f6146101dc57806370266c551461021e576100f3565b80630e18c290146100f8578063150b7a02146101365780633151659614610173576100f3565b366100f357005b600080fd5b34801561010457600080fd5b5061011f600480360381019061011a9190611845565b610398565b60405161012d92919061189c565b60405180910390f35b34801561014257600080fd5b5061015d60048036038101906101589190611960565b6103e9565b60405161016a9190611a23565b60405180910390f35b34801561017f57600080fd5b5061019a60048036038101906101959190611b7f565b6103fe565b005b3480156101a857600080fd5b506101b16105fd565b005b3480156101bf57600080fd5b506101da60048036038101906101d59190611845565b610655565b005b3480156101e857600080fd5b5061020360048036038101906101fe9190611bdb565b610803565b60405161021596959493929190611d29565b60405180910390f35b34801561022a57600080fd5b5061024560048036038101906102409190611845565b610921565b60405161025493929190611d91565b60405180910390f35b34801561026957600080fd5b50610272610a00565b005b34801561028057600080fd5b50610289610a14565b6040516102969190611dcf565b60405180910390f35b3480156102ab57600080fd5b506102b4610a1a565b6040516102c19190611dcf565b60405180910390f35b3480156102d657600080fd5b506102df610a2a565b6040516102ec9190611dea565b60405180910390f35b61030f600480360381019061030a9190611e43565b610a53565b005b61032b60048036038101906103269190611bdb565b610d8e565b005b34801561033957600080fd5b50610354600480360381019061034f9190611bdb565b611430565b60405161036696959493929190611d29565b60405180910390f35b34801561037b57600080fd5b5061039660048036038101906103919190611845565b61154e565b005b60036020528060005260406000206000915090508060000160009054906101000a900473ffffffffffffffffffffffffffffffffffffffff16908060000160149054906101000a900460ff16905082565b600063150b7a0260e01b905095945050505050565b6104066115d4565b600260008373ffffffffffffffffffffffffffffffffffffffff1673ffffffffffffffffffffffffffffffffffffffff16815260200190815260200160002060020160009054906101000a900460ff1615610496576040517f08c379a000000000000000000000000000000000000000000000000000000000815260040161048d90611f12565b60405180910390fd5b81600260008473ffffffffffffffffffffffffffffffffffffffff1673ffffffffffffffffffffffffffffffffffffffff16815260200190815260200160002060000160006101000a81548173ffffffffffffffffffffffffffffffffffffffff021916908373ffffffffffffffffffffffffffffffffffffffff16021790555080600260008473ffffffffffffffffffffffffffffffffffffffff1673ffffffffffffffffffffffffffffffffffffffff16815260200190815260200160002060010190816105669190612134565b506001600260008473ffffffffffffffffffffffffffffffffffffffff1673ffffffffffffffffffffffffffffffffffffffff16815260200190815260200160002060020160006101000a81548160ff0219169083151502179055507f02de07d8aeac43a97fdb9b5d3487e8a1f295211cacd4e1c4c2cc917ba3d19cd2826040516105f19190611dea565b60405180910390a15050565b6106056115d4565b61060d610a2a565b73ffffffffffffffffffffffffffffffffffffffff166108fc479081150290604051600060405180830381858888f19350505050158015610652573d6000803e3d6000fd5b50565b61065d6115d4565b600360008273ffffffffffffffffffffffffffffffffffffffff1673ffffffffffffffffffffffffffffffffffffffff16815260200190815260200160002060000160149054906101000a900460ff16156106ed576040517f08c379a00000000000000000000000000000000000000000000000000000000081526004016106e490612252565b60405180910390fd5b80600360008373ffffffffffffffffffffffffffffffffffffffff1673ffffffffffffffffffffffffffffffffffffffff16815260200190815260200160002060000160006101000a81548173ffffffffffffffffffffffffffffffffffffffff021916908373ffffffffffffffffffffffffffffffffffffffff1602179055506001600360008373ffffffffffffffffffffffffffffffffffffffff1673ffffffffffffffffffffffffffffffffffffffff16815260200190815260200160002060000160146101000a81548160ff0219169083151502179055507f2ce5ee634dc8e65bbbad43d4ca6b4413f261b6a5dd89d79f5db67892e4512d1a816040516107f89190611dea565b60405180910390a150565b6004602052816000526040600020602052806000526040600020600091509150508060000160009054906101000a900473ffffffffffffffffffffffffffffffffffffffff16908060010160009054906101000a900473ffffffffffffffffffffffffffffffffffffffff169080600201549080600301549080600401805461088b90611f61565b80601f01602080910402602001604051908101604052809291908181526020018280546108b790611f61565b80156109045780601f106108d957610100808354040283529160200191610904565b820191906000526020600020905b8154815290600101906020018083116108e757829003601f168201915b5050505050908060050160009054906101000a900460ff16905086565b60026020528060005260406000206000915090508060000160009054906101000a900473ffffffffffffffffffffffffffffffffffffffff169080600101805461096a90611f61565b80601f016020809104026020016040519081016040528092919081815260200182805461099690611f61565b80156109e35780601f106109b8576101008083540402835291602001916109e3565b820191906000526020600020905b8154815290600101906020018083116109c657829003601f168201915b5050505050908060020160009054906101000a900460ff16905083565b610a086115d4565b610a12600061165b565b565b60075481565b6000610a246115d4565b47905090565b60008060009054906101000a900473ffffffffffffffffffffffffffffffffffffffff16905090565b600260003373ffffffffffffffffffffffffffffffffffffffff1673ffffffffffffffffffffffffffffffffffffffff16815260200190815260200160002060020160009054906101000a900460ff16610ae2576040517f08c379a0000000000000000000000000000000000000000000000000000000008152600401610ad9906122e4565b60405180910390fd5b610aea61171f565b600654341015610b2f576040517f08c379a0000000000000000000000000000000000000000000000000000000008152600401610b2690612376565b60405180910390fd5b8373ffffffffffffffffffffffffffffffffffffffff166342842e0e3330866040518463ffffffff1660e01b8152600401610b6c93929190612396565b600060405180830381600087803b158015610b8657600080fd5b505af1158015610b9a573d6000803e3d6000fd5b5050505060006040518060c001604052808673ffffffffffffffffffffffffffffffffffffffff1681526020013373ffffffffffffffffffffffffffffffffffffffff16815260200185815260200184815260200183815260200160001515815250905080600460003373ffffffffffffffffffffffffffffffffffffffff1673ffffffffffffffffffffffffffffffffffffffff168152602001908152602001600020600086815260200190815260200160002060008201518160000160006101000a81548173ffffffffffffffffffffffffffffffffffffffff021916908373ffffffffffffffffffffffffffffffffffffffff16021790555060208201518160010160006101000a81548173ffffffffffffffffffffffffffffffffffffffff021916908373ffffffffffffffffffffffffffffffffffffffff16021790555060408201518160020155606082015181600301556080820151816004019081610d069190612134565b5060a08201518160050160006101000a81548160ff02191690831515021790555090505060076000815480929190610d3d906123fc565b91905055507f17d43dd9ef45113fc50b612cdd48849fdc562e1dfc8e35a69e075102816c5ec633858585604051610d779493929190612444565b60405180910390a150610d88611765565b50505050565b600360003373ffffffffffffffffffffffffffffffffffffffff1673ffffffffffffffffffffffffffffffffffffffff16815260200190815260200160002060000160149054906101000a900460ff16610e1d576040517f08c379a0000000000000000000000000000000000000000000000000000000008152600401610e1490612502565b60405180910390fd5b610e2561171f565b6000600460008473ffffffffffffffffffffffffffffffffffffffff1673ffffffffffffffffffffffffffffffffffffffff16815260200190815260200160002060008381526020019081526020016000209050600073ffffffffffffffffffffffffffffffffffffffff168373ffffffffffffffffffffffffffffffffffffffff1603610ee8576040517f08c379a0000000000000000000000000000000000000000000000000000000008152600401610edf9061256e565b60405180910390fd5b600073ffffffffffffffffffffffffffffffffffffffff168160010160009054906101000a900473ffffffffffffffffffffffffffffffffffffffff1673ffffffffffffffffffffffffffffffffffffffff1603610f7b576040517f08c379a0000000000000000000000000000000000000000000000000000000008152600401610f72906125da565b60405180910390fd5b8060050160009054906101000a900460ff1615610fcd576040517f08c379a0000000000000000000000000000000000000000000000000000000008152600401610fc490612646565b60405180910390fd5b8060030154341015611014576040517f08c379a000000000000000000000000000000000000000000000000000000000815260040161100b906126b2565b60405180910390fd5b60018160050160006101000a81548160ff0219169083151502179055508060000160009054906101000a900473ffffffffffffffffffffffffffffffffffffffff1673ffffffffffffffffffffffffffffffffffffffff166342842e0e3033856040518463ffffffff1660e01b815260040161109293929190612396565b600060405180830381600087803b1580156110ac57600080fd5b505af11580156110c0573d6000803e3d6000fd5b5050505080600560003373ffffffffffffffffffffffffffffffffffffffff1673ffffffffffffffffffffffffffffffffffffffff16815260200190815260200160002060008481526020019081526020016000206000820160009054906101000a900473ffffffffffffffffffffffffffffffffffffffff168160000160006101000a81548173ffffffffffffffffffffffffffffffffffffffff021916908373ffffffffffffffffffffffffffffffffffffffff1602179055506001820160009054906101000a900473ffffffffffffffffffffffffffffffffffffffff168160010160006101000a81548173ffffffffffffffffffffffffffffffffffffffff021916908373ffffffffffffffffffffffffffffffffffffffff16021790555060028201548160020155600382015481600301556004820181600401908161120b91906126e8565b506005820160009054906101000a900460ff168160050160006101000a81548160ff021916908315150217905550905050600460008473ffffffffffffffffffffffffffffffffffffffff1673ffffffffffffffffffffffffffffffffffffffff1681526020019081526020016000206000838152602001908152602001600020600080820160006101000a81549073ffffffffffffffffffffffffffffffffffffffff02191690556001820160006101000a81549073ffffffffffffffffffffffffffffffffffffffff0219169055600282016000905560038201600090556004820160006112fb9190611776565b6005820160006101000a81549060ff0219169055505060008373ffffffffffffffffffffffffffffffffffffffff163460405161133790612801565b60006040518083038185875af1925050503d8060008114611374576040519150601f19603f3d011682016040523d82523d6000602084013e611379565b606091505b50509050806113bd576040517f08c379a00000000000000000000000000000000000000000000000000000000081526004016113b490612862565b60405180910390fd5b7ff6ccc0cf89c21c54724ea6ef2ec01da8fe33a1cebe06607e160fd78483eba3028260010160009054906101000a900473ffffffffffffffffffffffffffffffffffffffff163384600201543460405161141a94939291906128a3565b60405180910390a1505061142c611765565b5050565b6005602052816000526040600020602052806000526040600020600091509150508060000160009054906101000a900473ffffffffffffffffffffffffffffffffffffffff16908060010160009054906101000a900473ffffffffffffffffffffffffffffffffffffffff16908060020154908060030154908060040180546114b890611f61565b80601f01602080910402602001604051908101604052809291908181526020018280546114e490611f61565b80156115315780601f1061150657610100808354040283529160200191611531565b820191906000526020600020905b81548152906001019060200180831161151457829003601f168201915b5050505050908060050160009054906101000a900460ff16905086565b6115566115d4565b600073ffffffffffffffffffffffffffffffffffffffff168173ffffffffffffffffffffffffffffffffffffffff16036115c85760006040517f1e4fbdf70000000000000000000000000000000000000000000000000000000081526004016115bf9190611dea565b60405180910390fd5b6115d18161165b565b50565b6115dc61176e565b73ffffffffffffffffffffffffffffffffffffffff166115fa610a2a565b73ffffffffffffffffffffffffffffffffffffffff16146116595761161d61176e565b6040517f118cdaa70000000000000000000000000000000000000000000000000000000081526004016116509190611dea565b60405180910390fd5b565b60008060009054906101000a900473ffffffffffffffffffffffffffffffffffffffff169050816000806101000a81548173ffffffffffffffffffffffffffffffffffffffff021916908373ffffffffffffffffffffffffffffffffffffffff1602179055508173ffffffffffffffffffffffffffffffffffffffff168173ffffffffffffffffffffffffffffffffffffffff167f8be0079c531659141344cd1fd0a4f28419497f9722a3daafe3b4186f6b6457e060405160405180910390a35050565b60026001540361175b576040517f3ee5aeb500000000000000000000000000000000000000000000000000000000815260040160405180910390fd5b6002600181905550565b60018081905550565b600033905090565b50805461178290611f61565b6000825580601f1061179457506117b3565b601f0160209004906000526020600020908101906117b291906117b6565b5b50565b5b808211156117cf5760008160009055506001016117b7565b5090565b6000604051905090565b600080fd5b600080fd5b600073ffffffffffffffffffffffffffffffffffffffff82169050919050565b6000611812826117e7565b9050919050565b61182281611807565b811461182d57600080fd5b50565b60008135905061183f81611819565b92915050565b60006020828403121561185b5761185a6117dd565b5b600061186984828501611830565b91505092915050565b61187b81611807565b82525050565b60008115159050919050565b61189681611881565b82525050565b60006040820190506118b16000830185611872565b6118be602083018461188d565b9392505050565b6000819050919050565b6118d8816118c5565b81146118e357600080fd5b50565b6000813590506118f5816118cf565b92915050565b600080fd5b600080fd5b600080fd5b60008083601f8401126119205761191f6118fb565b5b8235905067ffffffffffffffff81111561193d5761193c611900565b5b60208301915083600182028301111561195957611958611905565b5b9250929050565b60008060008060006080868803121561197c5761197b6117dd565b5b600061198a88828901611830565b955050602061199b88828901611830565b94505060406119ac888289016118e6565b935050606086013567ffffffffffffffff8111156119cd576119cc6117e2565b5b6119d98882890161190a565b92509250509295509295909350565b60007fffffffff0000000000000000000000000000000000000000000000000000000082169050919050565b611a1d816119e8565b82525050565b6000602082019050611a386000830184611a14565b92915050565b600080fd5b6000601f19601f8301169050919050565b7f4e487b7100000000000000000000000000000000000000000000000000000000600052604160045260246000fd5b611a8c82611a43565b810181811067ffffffffffffffff82111715611aab57611aaa611a54565b5b80604052505050565b6000611abe6117d3565b9050611aca8282611a83565b919050565b600067ffffffffffffffff821115611aea57611ae9611a54565b5b611af382611a43565b9050602081019050919050565b82818337600083830152505050565b6000611b22611b1d84611acf565b611ab4565b905082815260208101848484011115611b3e57611b3d611a3e565b5b611b49848285611b00565b509392505050565b600082601f830112611b6657611b656118fb565b5b8135611b76848260208601611b0f565b91505092915050565b60008060408385031215611b9657611b956117dd565b5b6000611ba485828601611830565b925050602083013567ffffffffffffffff811115611bc557611bc46117e2565b5b611bd185828601611b51565b9150509250929050565b60008060408385031215611bf257611bf16117dd565b5b6000611c0085828601611830565b9250506020611c11858286016118e6565b9150509250929050565b6000819050919050565b6000611c40611c3b611c36846117e7565b611c1b565b6117e7565b9050919050565b6000611c5282611c25565b9050919050565b6000611c6482611c47565b9050919050565b611c7481611c59565b82525050565b6000611c85826117e7565b9050919050565b611c9581611c7a565b82525050565b611ca4816118c5565b82525050565b600081519050919050565b600082825260208201905092915050565b60005b83811015611ce4578082015181840152602081019050611cc9565b60008484015250505050565b6000611cfb82611caa565b611d058185611cb5565b9350611d15818560208601611cc6565b611d1e81611a43565b840191505092915050565b600060c082019050611d3e6000830189611c6b565b611d4b6020830188611c8c565b611d586040830187611c9b565b611d656060830186611c9b565b8181036080830152611d778185611cf0565b9050611d8660a083018461188d565b979650505050505050565b6000606082019050611da66000830186611872565b8181036020830152611db88185611cf0565b9050611dc7604083018461188d565b949350505050565b6000602082019050611de46000830184611c9b565b92915050565b6000602082019050611dff6000830184611872565b92915050565b6000611e1082611807565b9050919050565b611e2081611e05565b8114611e2b57600080fd5b50565b600081359050611e3d81611e17565b92915050565b60008060008060808587031215611e5d57611e5c6117dd565b5b6000611e6b87828801611e2e565b9450506020611e7c878288016118e6565b9350506040611e8d878288016118e6565b925050606085013567ffffffffffffffff811115611eae57611ead6117e2565b5b611eba87828801611b51565b91505092959194509250565b7f4272616e6420616c726561647920726567697374657265640000000000000000600082015250565b6000611efc601883611cb5565b9150611f0782611ec6565b602082019050919050565b60006020820190508181036000830152611f2b81611eef565b9050919050565b7f4e487b7100000000000000000000000000000000000000000000000000000000600052602260045260246000fd5b60006002820490506001821680611f7957607f821691505b602082108103611f8c57611f8b611f32565b5b50919050565b60008190508160005260206000209050919050565b60006020601f8301049050919050565b600082821b905092915050565b600060088302611ff47fffffffffffffffffffffffffffffffffffffffffffffffffffffffffffffffff82611fb7565b611ffe8683611fb7565b95508019841693508086168417925050509392505050565b600061203161202c612027846118c5565b611c1b565b6118c5565b9050919050565b6000819050919050565b61204b83612016565b61205f61205782612038565b848454611fc4565b825550505050565b600090565b612074612067565b61207f818484612042565b505050565b5b818110156120a35761209860008261206c565b600181019050612085565b5050565b601f8211156120e8576120b981611f92565b6120c284611fa7565b810160208510156120d1578190505b6120e56120dd85611fa7565b830182612084565b50505b505050565b600082821c905092915050565b600061210b600019846008026120ed565b1980831691505092915050565b600061212483836120fa565b9150826002028217905092915050565b61213d82611caa565b67ffffffffffffffff81111561215657612155611a54565b5b6121608254611f61565b61216b8282856120a7565b600060209050601f83116001811461219e576000841561218c578287015190505b6121968582612118565b8655506121fe565b601f1984166121ac86611f92565b60005b828110156121d4578489015182556001820191506020850194506020810190506121af565b868310156121f157848901516121ed601f8916826120fa565b8355505b6001600288020188555050505b505050505050565b7f436c69656e7420616c7265616479207265676973746572656400000000000000600082015250565b600061223c601983611cb5565b915061224782612206565b602082019050919050565b6000602082019050818103600083015261226b8161222f565b9050919050565b7f596f75206861766520746f20626520612072656769737465726564204272616e60008201527f6400000000000000000000000000000000000000000000000000000000000000602082015250565b60006122ce602183611cb5565b91506122d982612272565b604082019050919050565b600060208201905081810360008301526122fd816122c1565b9050919050565b7f4d696e696d616c20707269636520697320312045544820746f2063726561746560008201527f204e465400000000000000000000000000000000000000000000000000000000602082015250565b6000612360602483611cb5565b915061236b82612304565b604082019050919050565b6000602082019050818103600083015261238f81612353565b9050919050565b60006060820190506123ab6000830186611872565b6123b86020830185611872565b6123c56040830184611c9b565b949350505050565b7f4e487b7100000000000000000000000000000000000000000000000000000000600052601160045260246000fd5b6000612407826118c5565b91507fffffffffffffffffffffffffffffffffffffffffffffffffffffffffffffffff8203612439576124386123cd565b5b600182019050919050565b60006080820190506124596000830187611872565b6124666020830186611c9b565b6124736040830185611c9b565b81810360608301526124858184611cf0565b905095945050505050565b7f596f75206861766520746f2062652061207265676973746572656420436c696560008201527f6e74000000000000000000000000000000000000000000000000000000000000602082015250565b60006124ec602283611cb5565b91506124f782612490565b604082019050919050565b6000602082019050818103600083015261251b816124df565b9050919050565b7f4272616e6420616464726573732063616e6e6f74206265207a65726f00000000600082015250565b6000612558601c83611cb5565b915061256382612522565b602082019050919050565b600060208201905081810360008301526125878161254b565b9050919050565b7f4e465420646f65736e2774206578697374000000000000000000000000000000600082015250565b60006125c4601183611cb5565b91506125cf8261258e565b602082019050919050565b600060208201905081810360008301526125f3816125b7565b9050919050565b7f4e465420616c726561647920736f6c6400000000000000000000000000000000600082015250565b6000612630601083611cb5565b915061263b826125fa565b602082019050919050565b6000602082019050818103600083015261265f81612623565b9050919050565b7f496e73756666696369656e742066756e647320746f20627579204e4654000000600082015250565b600061269c601d83611cb5565b91506126a782612666565b602082019050919050565b600060208201905081810360008301526126cb8161268f565b9050919050565b6000815490506126e181611f61565b9050919050565b8181036126f65750506127ce565b6126ff826126d2565b67ffffffffffffffff81111561271857612717611a54565b5b6127228254611f61565b61272d8282856120a7565b6000601f83116001811461275c576000841561274a578287015490505b6127548582612118565b8655506127c7565b601f19841661276a87611f92565b965061277586611f92565b60005b8281101561279d57848901548255600182019150600185019450602081019050612778565b868310156127ba57848901546127b6601f8916826120fa565b8355505b6001600288020188555050505b5050505050505b565b600081905092915050565b50565b60006127eb6000836127d0565b91506127f6826127db565b600082019050919050565b600061280c826127de565b9150819050919050565b7f7472616e73666572206661696c65640000000000000000000000000000000000600082015250565b600061284c600f83611cb5565b915061285782612816565b602082019050919050565b6000602082019050818103600083015261287b8161283f565b9050919050565b600061288d82611c47565b9050919050565b61289d81612882565b82525050565b60006080820190506128b86000830187612894565b6128c56020830186611872565b6128d26040830185611c9b565b6128df6060830184611c9b565b9594505050505056fea264697066735822122078ade096f339bbd104385d9c8625548f1c9b1f823e1e99b641c88fb5d52633a464736f6c63430008180033",
  "linkReferences": {},
  "deployedLinkReferences": {}
}