{
  "_format": "hh-sol-artifact-1",
  "contractName": "LuxauMarketplace",
  "sourceName": "contracts/LuxauMarketplace.sol",
  "abi": [
    {
      "inputs": [],
      "stateMutability": "payable",
      "type": "constructor"
    },
    {
      "inputs": [
        {
          "internalType": "address",
          "name": "owner",
          "type": "address"
        }
      ],
      "name": "OwnableInvalidOwner",
      "type": "error"
    },
    {
      "inputs": [
        {
          "internalType": "address",
          "name": "account",
          "type": "address"
        }
      ],
      "name": "OwnableUnauthorizedAccount",
      "type": "error"
    },
    {
      "inputs": [],
      "name": "ReentrancyGuardReentrantCall",
      "type": "error"
    },
    {
      "anonymous": false,
      "inputs": [
        {
          "indexed": false,
          "internalType": "address",
          "name": "brandAddress",
          "type": "address"
        }
      ],
      "name": "BrandRegistered",
      "type": "event"
    },
    {
      "anonymous": false,
      "inputs": [
        {
          "indexed": false,
          "internalType": "address",
          "name": "clientAddress",
          "type": "address"
        }
      ],
      "name": "ClientRegistered",
      "type": "event"
    },
    {
      "anonymous": false,
      "inputs": [
        {
          "indexed": false,
          "internalType": "address",
          "name": "brandAddress",
          "type": "address"
        },
        {
          "indexed": false,
          "internalType": "uint256",
          "name": "tokenId",
          "type": "uint256"
        },
        {
          "indexed": false,
          "internalType": "uint256",
          "name": "price",
          "type": "uint256"
        },
        {
          "indexed": false,
          "internalType": "string",
          "name": "brandName",
          "type": "string"
        },
        {
          "indexed": false,
          "internalType": "string",
          "name": "description",
          "type": "string"
        }
      ],
      "name": "NFTCreated",
      "type": "event"
    },
    {
      "anonymous": false,
      "inputs": [
        {
          "indexed": false,
          "internalType": "address",
          "name": "from",
          "type": "address"
        },
        {
          "indexed": false,
          "internalType": "address",
          "name": "to",
          "type": "address"
        },
        {
          "indexed": false,
          "internalType": "uint256",
          "name": "id",
          "type": "uint256"
        },
        {
          "indexed": false,
          "internalType": "uint256",
          "name": "price",
          "type": "uint256"
        },
        {
          "indexed": false,
          "internalType": "bool",
          "name": "isSold",
          "type": "bool"
        }
      ],
      "name": "NFTSold",
      "type": "event"
    },
    {
      "anonymous": false,
      "inputs": [
        {
          "indexed": true,
          "internalType": "address",
          "name": "previousOwner",
          "type": "address"
        },
        {
          "indexed": true,
          "internalType": "address",
          "name": "newOwner",
          "type": "address"
        }
      ],
      "name": "OwnershipTransferred",
      "type": "event"
    },
    {
      "inputs": [
        {
          "internalType": "address",
          "name": "",
          "type": "address"
        },
        {
          "internalType": "uint256",
          "name": "",
          "type": "uint256"
        }
      ],
      "name": "brandNFTs",
      "outputs": [
        {
          "internalType": "contract IERC721",
          "name": "NFTAddress",
          "type": "address"
        },
        {
          "internalType": "address payable",
          "name": "seller",
          "type": "address"
        },
        {
          "internalType": "uint256",
          "name": "id",
          "type": "uint256"
        },
        {
          "internalType": "uint256",
          "name": "price",
          "type": "uint256"
        },
        {
          "internalType": "string",
          "name": "brandName",
          "type": "string"
        },
        {
          "internalType": "string",
          "name": "description",
          "type": "string"
        },
        {
          "internalType": "bool",
          "name": "isSold",
          "type": "bool"
        }
      ],
      "stateMutability": "view",
      "type": "function"
    },
    {
      "inputs": [
        {
          "internalType": "address",
          "name": "_brandAddress",
          "type": "address"
        },
        {
          "internalType": "uint256",
          "name": "_tokenId",
          "type": "uint256"
        }
      ],
      "name": "buyNFT",
      "outputs": [],
      "stateMutability": "payable",
      "type": "function"
    },
    {
      "inputs": [
        {
          "internalType": "address",
          "name": "",
          "type": "address"
        },
        {
          "internalType": "uint256",
          "name": "",
          "type": "uint256"
        }
      ],
      "name": "clientNFTs",
      "outputs": [
        {
          "internalType": "contract IERC721",
          "name": "NFTAddress",
          "type": "address"
        },
        {
          "internalType": "address payable",
          "name": "seller",
          "type": "address"
        },
        {
          "internalType": "uint256",
          "name": "id",
          "type": "uint256"
        },
        {
          "internalType": "uint256",
          "name": "price",
          "type": "uint256"
        },
        {
          "internalType": "string",
          "name": "brandName",
          "type": "string"
        },
        {
          "internalType": "string",
          "name": "description",
          "type": "string"
        },
        {
          "internalType": "bool",
          "name": "isSold",
          "type": "bool"
        }
      ],
      "stateMutability": "view",
      "type": "function"
    },
    {
      "inputs": [],
      "name": "contractBalance",
      "outputs": [
        {
          "internalType": "uint256",
          "name": "",
          "type": "uint256"
        }
      ],
      "stateMutability": "view",
      "type": "function"
    },
    {
      "inputs": [
        {
          "internalType": "contract IERC721",
          "name": "_NFTAddress",
          "type": "address"
        },
        {
          "internalType": "uint256",
          "name": "_tokenId",
          "type": "uint256"
        },
        {
          "internalType": "uint256",
          "name": "_price",
          "type": "uint256"
        },
        {
          "internalType": "string",
          "name": "_description",
          "type": "string"
        }
      ],
      "name": "createNFT",
      "outputs": [],
      "stateMutability": "payable",
      "type": "function"
    },
    {
      "inputs": [
        {
          "internalType": "address",
          "name": "",
          "type": "address"
        },
        {
          "internalType": "address",
          "name": "",
          "type": "address"
        },
        {
          "internalType": "uint256",
          "name": "",
          "type": "uint256"
        },
        {
          "internalType": "bytes",
          "name": "",
          "type": "bytes"
        }
      ],
      "name": "onERC721Received",
      "outputs": [
        {
          "internalType": "bytes4",
          "name": "",
          "type": "bytes4"
        }
      ],
      "stateMutability": "pure",
      "type": "function"
    },
    {
      "inputs": [],
      "name": "owner",
      "outputs": [
        {
          "internalType": "address",
          "name": "",
          "type": "address"
        }
      ],
      "stateMutability": "view",
      "type": "function"
    },
    {
      "inputs": [
        {
          "internalType": "address",
          "name": "_address",
          "type": "address"
        },
        {
          "internalType": "string",
          "name": "_brandName",
          "type": "string"
        }
      ],
      "name": "registerBrand",
      "outputs": [],
      "stateMutability": "nonpayable",
      "type": "function"
    },
    {
      "inputs": [
        {
          "internalType": "address",
          "name": "_address",
          "type": "address"
        }
      ],
      "name": "registerClient",
      "outputs": [],
      "stateMutability": "nonpayable",
      "type": "function"
    },
    {
      "inputs": [
        {
          "internalType": "address",
          "name": "",
          "type": "address"
        }
      ],
      "name": "registeredBrands",
      "outputs": [
        {
          "internalType": "address",
          "name": "brandAddress",
          "type": "address"
        },
        {
          "internalType": "string",
          "name": "brandName",
          "type": "string"
        },
        {
          "internalType": "bool",
          "name": "isRegistered",
          "type": "bool"
        }
      ],
      "stateMutability": "view",
      "type": "function"
    },
    {
      "inputs": [
        {
          "internalType": "address",
          "name": "",
          "type": "address"
        }
      ],
      "name": "registeredClients",
      "outputs": [
        {
          "internalType": "address",
          "name": "clientAddress",
          "type": "address"
        },
        {
          "internalType": "bool",
          "name": "isRegistered",
          "type": "bool"
        }
      ],
      "stateMutability": "view",
      "type": "function"
    },
    {
      "inputs": [],
      "name": "renounceOwnership",
      "outputs": [],
      "stateMutability": "nonpayable",
      "type": "function"
    },
    {
      "inputs": [],
      "name": "totalTokens",
      "outputs": [
        {
          "internalType": "uint256",
          "name": "",
          "type": "uint256"
        }
      ],
      "stateMutability": "view",
      "type": "function"
    },
    {
      "inputs": [
        {
          "internalType": "address",
          "name": "newOwner",
          "type": "address"
        }
      ],
      "name": "transferOwnership",
      "outputs": [],
      "stateMutability": "nonpayable",
      "type": "function"
    },
    {
      "inputs": [],
      "name": "withdraw",
      "outputs": [],
      "stateMutability": "nonpayable",
      "type": "function"
    },
    {
      "stateMutability": "payable",
      "type": "receive"
    }
  ],
  "bytecode": "0x60806040526001600655600060075533600073ffffffffffffffffffffffffffffffffffffffff168173ffffffffffffffffffffffffffffffffffffffff1603620000845760006040517f1e4fbdf70000000000000000000000000000000000000000000000000000000081526004016200007b91906200030f565b60405180910390fd5b62000095816200020660201b60201c565b506001808190555033600260003373ffffffffffffffffffffffffffffffffffffffff1673ffffffffffffffffffffffffffffffffffffffff16815260200190815260200160002060000160006101000a81548173ffffffffffffffffffffffffffffffffffffffff021916908373ffffffffffffffffffffffffffffffffffffffff1602179055506040518060400160405280601881526020017f4c75786175204c6966657374796c6520456c6567616e63650000000000000000815250600260003373ffffffffffffffffffffffffffffffffffffffff1673ffffffffffffffffffffffffffffffffffffffff1681526020019081526020016000206001019081620001a49190620005a6565b506001600260003373ffffffffffffffffffffffffffffffffffffffff1673ffffffffffffffffffffffffffffffffffffffff16815260200190815260200160002060020160006101000a81548160ff0219169083151502179055506200068d565b60008060009054906101000a900473ffffffffffffffffffffffffffffffffffffffff169050816000806101000a81548173ffffffffffffffffffffffffffffffffffffffff021916908373ffffffffffffffffffffffffffffffffffffffff1602179055508173ffffffffffffffffffffffffffffffffffffffff168173ffffffffffffffffffffffffffffffffffffffff167f8be0079c531659141344cd1fd0a4f28419497f9722a3daafe3b4186f6b6457e060405160405180910390a35050565b600073ffffffffffffffffffffffffffffffffffffffff82169050919050565b6000620002f782620002ca565b9050919050565b6200030981620002ea565b82525050565b6000602082019050620003266000830184620002fe565b92915050565b600081519050919050565b7f4e487b7100000000000000000000000000000000000000000000000000000000600052604160045260246000fd5b7f4e487b7100000000000000000000000000000000000000000000000000000000600052602260045260246000fd5b60006002820490506001821680620003ae57607f821691505b602082108103620003c457620003c362000366565b5b50919050565b60008190508160005260206000209050919050565b60006020601f8301049050919050565b600082821b905092915050565b6000600883026200042e7fffffffffffffffffffffffffffffffffffffffffffffffffffffffffffffffff82620003ef565b6200043a8683620003ef565b95508019841693508086168417925050509392505050565b6000819050919050565b6000819050919050565b600062000487620004816200047b8462000452565b6200045c565b62000452565b9050919050565b6000819050919050565b620004a38362000466565b620004bb620004b2826200048e565b848454620003fc565b825550505050565b600090565b620004d2620004c3565b620004df81848462000498565b505050565b5b818110156200050757620004fb600082620004c8565b600181019050620004e5565b5050565b601f82111562000556576200052081620003ca565b6200052b84620003df565b810160208510156200053b578190505b620005536200054a85620003df565b830182620004e4565b50505b505050565b600082821c905092915050565b60006200057b600019846008026200055b565b1980831691505092915050565b600062000596838362000568565b9150826002028217905092915050565b620005b1826200032c565b67ffffffffffffffff811115620005cd57620005cc62000337565b5b620005d9825462000395565b620005e68282856200050b565b600060209050601f8311600181146200061e576000841562000609578287015190505b62000615858262000588565b86555062000685565b601f1984166200062e86620003ca565b60005b82811015620006585784890151825560018201915060208501945060208101905062000631565b8683101562000678578489015162000674601f89168262000568565b8355505b6001600288020188555050505b505050505050565b612c45806200069d6000396000f3fe6080604052600436106100ec5760003560e01c8063715018a61161008a5780638e814c46116100595780638e814c46146102f6578063a82ba76f14610312578063e31974b61461032e578063f2fde38b14610371576100f3565b8063715018a61461025e5780637e1c0c09146102755780638b7afe2e146102a05780638da5cb5b146102cb576100f3565b80633ccfd60b116100c65780633ccfd60b1461019c57806342a67b7f146101b35780636dab57f6146101dc57806370266c551461021f576100f3565b80630e18c290146100f8578063150b7a02146101365780633151659614610173576100f3565b366100f357005b600080fd5b34801561010457600080fd5b5061011f600480360381019061011a9190611ab0565b61039a565b60405161012d929190611b07565b60405180910390f35b34801561014257600080fd5b5061015d60048036038101906101589190611bcb565b6103eb565b60405161016a9190611c8e565b60405180910390f35b34801561017f57600080fd5b5061019a60048036038101906101959190611dea565b610400565b005b3480156101a857600080fd5b506101b16105ff565b005b3480156101bf57600080fd5b506101da60048036038101906101d59190611ab0565b610657565b005b3480156101e857600080fd5b5061020360048036038101906101fe9190611e46565b610805565b6040516102169796959493929190611f94565b60405180910390f35b34801561022b57600080fd5b5061024660048036038101906102419190611ab0565b6109b1565b60405161025593929190612011565b60405180910390f35b34801561026a57600080fd5b50610273610a90565b005b34801561028157600080fd5b5061028a610aa4565b604051610297919061204f565b60405180910390f35b3480156102ac57600080fd5b506102b5610aaa565b6040516102c2919061204f565b60405180910390f35b3480156102d757600080fd5b506102e0610aba565b6040516102ed919061206a565b60405180910390f35b610310600480360381019061030b91906120c3565b610ae3565b005b61032c60048036038101906103279190611e46565b610f47565b005b34801561033a57600080fd5b5061035560048036038101906103509190611e46565b61160d565b6040516103689796959493929190611f94565b60405180910390f35b34801561037d57600080fd5b5061039860048036038101906103939190611ab0565b6117b9565b005b60036020528060005260406000206000915090508060000160009054906101000a900473ffffffffffffffffffffffffffffffffffffffff16908060000160149054906101000a900460ff16905082565b600063150b7a0260e01b905095945050505050565b61040861183f565b600260008373ffffffffffffffffffffffffffffffffffffffff1673ffffffffffffffffffffffffffffffffffffffff16815260200190815260200160002060020160009054906101000a900460ff1615610498576040517f08c379a000000000000000000000000000000000000000000000000000000000815260040161048f90612192565b60405180910390fd5b81600260008473ffffffffffffffffffffffffffffffffffffffff1673ffffffffffffffffffffffffffffffffffffffff16815260200190815260200160002060000160006101000a81548173ffffffffffffffffffffffffffffffffffffffff021916908373ffffffffffffffffffffffffffffffffffffffff16021790555080600260008473ffffffffffffffffffffffffffffffffffffffff1673ffffffffffffffffffffffffffffffffffffffff168152602001908152602001600020600101908161056891906123b4565b506001600260008473ffffffffffffffffffffffffffffffffffffffff1673ffffffffffffffffffffffffffffffffffffffff16815260200190815260200160002060020160006101000a81548160ff0219169083151502179055507f02de07d8aeac43a97fdb9b5d3487e8a1f295211cacd4e1c4c2cc917ba3d19cd2826040516105f3919061206a565b60405180910390a15050565b61060761183f565b61060f610aba565b73ffffffffffffffffffffffffffffffffffffffff166108fc479081150290604051600060405180830381858888f19350505050158015610654573d6000803e3d6000fd5b50565b61065f61183f565b600360008273ffffffffffffffffffffffffffffffffffffffff1673ffffffffffffffffffffffffffffffffffffffff16815260200190815260200160002060000160149054906101000a900460ff16156106ef576040517f08c379a00000000000000000000000000000000000000000000000000000000081526004016106e6906124d2565b60405180910390fd5b80600360008373ffffffffffffffffffffffffffffffffffffffff1673ffffffffffffffffffffffffffffffffffffffff16815260200190815260200160002060000160006101000a81548173ffffffffffffffffffffffffffffffffffffffff021916908373ffffffffffffffffffffffffffffffffffffffff1602179055506001600360008373ffffffffffffffffffffffffffffffffffffffff1673ffffffffffffffffffffffffffffffffffffffff16815260200190815260200160002060000160146101000a81548160ff0219169083151502179055507f2ce5ee634dc8e65bbbad43d4ca6b4413f261b6a5dd89d79f5db67892e4512d1a816040516107fa919061206a565b60405180910390a150565b6004602052816000526040600020602052806000526040600020600091509150508060000160009054906101000a900473ffffffffffffffffffffffffffffffffffffffff16908060010160009054906101000a900473ffffffffffffffffffffffffffffffffffffffff169080600201549080600301549080600401805461088d906121e1565b80601f01602080910402602001604051908101604052809291908181526020018280546108b9906121e1565b80156109065780601f106108db57610100808354040283529160200191610906565b820191906000526020600020905b8154815290600101906020018083116108e957829003601f168201915b50505050509080600501805461091b906121e1565b80601f0160208091040260200160405190810160405280929190818152602001828054610947906121e1565b80156109945780601f1061096957610100808354040283529160200191610994565b820191906000526020600020905b81548152906001019060200180831161097757829003601f168201915b5050505050908060060160009054906101000a900460ff16905087565b60026020528060005260406000206000915090508060000160009054906101000a900473ffffffffffffffffffffffffffffffffffffffff16908060010180546109fa906121e1565b80601f0160208091040260200160405190810160405280929190818152602001828054610a26906121e1565b8015610a735780601f10610a4857610100808354040283529160200191610a73565b820191906000526020600020905b815481529060010190602001808311610a5657829003601f168201915b5050505050908060020160009054906101000a900460ff16905083565b610a9861183f565b610aa260006118c6565b565b60075481565b6000610ab461183f565b47905090565b60008060009054906101000a900473ffffffffffffffffffffffffffffffffffffffff16905090565b600260003373ffffffffffffffffffffffffffffffffffffffff1673ffffffffffffffffffffffffffffffffffffffff16815260200190815260200160002060020160009054906101000a900460ff16610b72576040517f08c379a0000000000000000000000000000000000000000000000000000000008152600401610b6990612564565b60405180910390fd5b610b7a61198a565b600654341015610bbf576040517f08c379a0000000000000000000000000000000000000000000000000000000008152600401610bb6906125f6565b60405180910390fd5b60006040518060e001604052808673ffffffffffffffffffffffffffffffffffffffff1681526020013373ffffffffffffffffffffffffffffffffffffffff168152602001858152602001848152602001600260003373ffffffffffffffffffffffffffffffffffffffff1673ffffffffffffffffffffffffffffffffffffffff1681526020019081526020016000206001018054610c5d906121e1565b80601f0160208091040260200160405190810160405280929190818152602001828054610c89906121e1565b8015610cd65780601f10610cab57610100808354040283529160200191610cd6565b820191906000526020600020905b815481529060010190602001808311610cb957829003601f168201915b5050505050815260200183815260200160001515815250905080600460003373ffffffffffffffffffffffffffffffffffffffff1673ffffffffffffffffffffffffffffffffffffffff168152602001908152602001600020600086815260200190815260200160002060008201518160000160006101000a81548173ffffffffffffffffffffffffffffffffffffffff021916908373ffffffffffffffffffffffffffffffffffffffff16021790555060208201518160010160006101000a81548173ffffffffffffffffffffffffffffffffffffffff021916908373ffffffffffffffffffffffffffffffffffffffff16021790555060408201518160020155606082015181600301556080820151816004019081610df791906123b4565b5060a0820151816005019081610e0d91906123b4565b5060c08201518160060160006101000a81548160ff02191690831515021790555090505060076000815480929190610e4490612645565b91905055508473ffffffffffffffffffffffffffffffffffffffff166342842e0e3330876040518463ffffffff1660e01b8152600401610e869392919061268d565b600060405180830381600087803b158015610ea057600080fd5b505af1158015610eb4573d6000803e3d6000fd5b505050507f9622af8f89003d9c0948fb9f78cd1a7c0b952a4002c611d8e7abad138cd862c7338585600260003373ffffffffffffffffffffffffffffffffffffffff1673ffffffffffffffffffffffffffffffffffffffff16815260200190815260200160002060010186604051610f30959493929190612748565b60405180910390a150610f416119d0565b50505050565b600360003373ffffffffffffffffffffffffffffffffffffffff1673ffffffffffffffffffffffffffffffffffffffff16815260200190815260200160002060000160149054906101000a900460ff16610fd6576040517f08c379a0000000000000000000000000000000000000000000000000000000008152600401610fcd9061281b565b60405180910390fd5b610fde61198a565b6000600460008473ffffffffffffffffffffffffffffffffffffffff1673ffffffffffffffffffffffffffffffffffffffff16815260200190815260200160002060008381526020019081526020016000209050600073ffffffffffffffffffffffffffffffffffffffff168373ffffffffffffffffffffffffffffffffffffffff16036110a1576040517f08c379a000000000000000000000000000000000000000000000000000000000815260040161109890612887565b60405180910390fd5b600073ffffffffffffffffffffffffffffffffffffffff168160010160009054906101000a900473ffffffffffffffffffffffffffffffffffffffff1673ffffffffffffffffffffffffffffffffffffffff1603611134576040517f08c379a000000000000000000000000000000000000000000000000000000000815260040161112b906128f3565b60405180910390fd5b8060060160009054906101000a900460ff1615611186576040517f08c379a000000000000000000000000000000000000000000000000000000000815260040161117d9061295f565b60405180910390fd5b80600301543410156111cd576040517f08c379a00000000000000000000000000000000000000000000000000000000081526004016111c4906129cb565b60405180910390fd5b60018160060160006101000a81548160ff02191690831515021790555080600560003373ffffffffffffffffffffffffffffffffffffffff1673ffffffffffffffffffffffffffffffffffffffff16815260200190815260200160002060008481526020019081526020016000206000820160009054906101000a900473ffffffffffffffffffffffffffffffffffffffff168160000160006101000a81548173ffffffffffffffffffffffffffffffffffffffff021916908373ffffffffffffffffffffffffffffffffffffffff1602179055506001820160009054906101000a900473ffffffffffffffffffffffffffffffffffffffff168160010160006101000a81548173ffffffffffffffffffffffffffffffffffffffff021916908373ffffffffffffffffffffffffffffffffffffffff1602179055506002820154816002015560038201548160030155600482018160040190816113319190612a01565b50600582018160050190816113469190612a01565b506006820160009054906101000a900460ff168160060160006101000a81548160ff0219169083151502179055509050508060000160009054906101000a900473ffffffffffffffffffffffffffffffffffffffff1673ffffffffffffffffffffffffffffffffffffffff166342842e0e3033856040518463ffffffff1660e01b81526004016113d89392919061268d565b600060405180830381600087803b1580156113f257600080fd5b505af1158015611406573d6000803e3d6000fd5b50505050600460008473ffffffffffffffffffffffffffffffffffffffff1673ffffffffffffffffffffffffffffffffffffffff1681526020019081526020016000206000838152602001908152602001600020600080820160006101000a81549073ffffffffffffffffffffffffffffffffffffffff02191690556001820160006101000a81549073ffffffffffffffffffffffffffffffffffffffff0219169055600282016000905560038201600090556004820160006114c991906119e1565b6005820160006114d991906119e1565b6006820160006101000a81549060ff0219169055505060008373ffffffffffffffffffffffffffffffffffffffff163460405161151590612b1a565b60006040518083038185875af1925050503d8060008114611552576040519150601f19603f3d011682016040523d82523d6000602084013e611557565b606091505b505090508061159b576040517f08c379a000000000000000000000000000000000000000000000000000000000815260040161159290612b7b565b60405180910390fd5b7f6ac6732babe48fb927aa0b2a7f4c6ae29c76fe55cf1d084fce7b1b25938ffb958260010160009054906101000a900473ffffffffffffffffffffffffffffffffffffffff1633853460016040516115f7959493929190612bbc565b60405180910390a150506116096119d0565b5050565b6005602052816000526040600020602052806000526040600020600091509150508060000160009054906101000a900473ffffffffffffffffffffffffffffffffffffffff16908060010160009054906101000a900473ffffffffffffffffffffffffffffffffffffffff1690806002015490806003015490806004018054611695906121e1565b80601f01602080910402602001604051908101604052809291908181526020018280546116c1906121e1565b801561170e5780601f106116e35761010080835404028352916020019161170e565b820191906000526020600020905b8154815290600101906020018083116116f157829003601f168201915b505050505090806005018054611723906121e1565b80601f016020809104026020016040519081016040528092919081815260200182805461174f906121e1565b801561179c5780601f106117715761010080835404028352916020019161179c565b820191906000526020600020905b81548152906001019060200180831161177f57829003601f168201915b5050505050908060060160009054906101000a900460ff16905087565b6117c161183f565b600073ffffffffffffffffffffffffffffffffffffffff168173ffffffffffffffffffffffffffffffffffffffff16036118335760006040517f1e4fbdf700000000000000000000000000000000000000000000000000000000815260040161182a919061206a565b60405180910390fd5b61183c816118c6565b50565b6118476119d9565b73ffffffffffffffffffffffffffffffffffffffff16611865610aba565b73ffffffffffffffffffffffffffffffffffffffff16146118c4576118886119d9565b6040517f118cdaa70000000000000000000000000000000000000000000000000000000081526004016118bb919061206a565b60405180910390fd5b565b60008060009054906101000a900473ffffffffffffffffffffffffffffffffffffffff169050816000806101000a81548173ffffffffffffffffffffffffffffffffffffffff021916908373ffffffffffffffffffffffffffffffffffffffff1602179055508173ffffffffffffffffffffffffffffffffffffffff168173ffffffffffffffffffffffffffffffffffffffff167f8be0079c531659141344cd1fd0a4f28419497f9722a3daafe3b4186f6b6457e060405160405180910390a35050565b6002600154036119c6576040517f3ee5aeb500000000000000000000000000000000000000000000000000000000815260040160405180910390fd5b6002600181905550565b60018081905550565b600033905090565b5080546119ed906121e1565b6000825580601f106119ff5750611a1e565b601f016020900490600052602060002090810190611a1d9190611a21565b5b50565b5b80821115611a3a576000816000905550600101611a22565b5090565b6000604051905090565b600080fd5b600080fd5b600073ffffffffffffffffffffffffffffffffffffffff82169050919050565b6000611a7d82611a52565b9050919050565b611a8d81611a72565b8114611a9857600080fd5b50565b600081359050611aaa81611a84565b92915050565b600060208284031215611ac657611ac5611a48565b5b6000611ad484828501611a9b565b91505092915050565b611ae681611a72565b82525050565b60008115159050919050565b611b0181611aec565b82525050565b6000604082019050611b1c6000830185611add565b611b296020830184611af8565b9392505050565b6000819050919050565b611b4381611b30565b8114611b4e57600080fd5b50565b600081359050611b6081611b3a565b92915050565b600080fd5b600080fd5b600080fd5b60008083601f840112611b8b57611b8a611b66565b5b8235905067ffffffffffffffff811115611ba857611ba7611b6b565b5b602083019150836001820283011115611bc457611bc3611b70565b5b9250929050565b600080600080600060808688031215611be757611be6611a48565b5b6000611bf588828901611a9b565b9550506020611c0688828901611a9b565b9450506040611c1788828901611b51565b935050606086013567ffffffffffffffff811115611c3857611c37611a4d565b5b611c4488828901611b75565b92509250509295509295909350565b60007fffffffff0000000000000000000000000000000000000000000000000000000082169050919050565b611c8881611c53565b82525050565b6000602082019050611ca36000830184611c7f565b92915050565b600080fd5b6000601f19601f8301169050919050565b7f4e487b7100000000000000000000000000000000000000000000000000000000600052604160045260246000fd5b611cf782611cae565b810181811067ffffffffffffffff82111715611d1657611d15611cbf565b5b80604052505050565b6000611d29611a3e565b9050611d358282611cee565b919050565b600067ffffffffffffffff821115611d5557611d54611cbf565b5b611d5e82611cae565b9050602081019050919050565b82818337600083830152505050565b6000611d8d611d8884611d3a565b611d1f565b905082815260208101848484011115611da957611da8611ca9565b5b611db4848285611d6b565b509392505050565b600082601f830112611dd157611dd0611b66565b5b8135611de1848260208601611d7a565b91505092915050565b60008060408385031215611e0157611e00611a48565b5b6000611e0f85828601611a9b565b925050602083013567ffffffffffffffff811115611e3057611e2f611a4d565b5b611e3c85828601611dbc565b9150509250929050565b60008060408385031215611e5d57611e5c611a48565b5b6000611e6b85828601611a9b565b9250506020611e7c85828601611b51565b9150509250929050565b6000819050919050565b6000611eab611ea6611ea184611a52565b611e86565b611a52565b9050919050565b6000611ebd82611e90565b9050919050565b6000611ecf82611eb2565b9050919050565b611edf81611ec4565b82525050565b6000611ef082611a52565b9050919050565b611f0081611ee5565b82525050565b611f0f81611b30565b82525050565b600081519050919050565b600082825260208201905092915050565b60005b83811015611f4f578082015181840152602081019050611f34565b60008484015250505050565b6000611f6682611f15565b611f708185611f20565b9350611f80818560208601611f31565b611f8981611cae565b840191505092915050565b600060e082019050611fa9600083018a611ed6565b611fb66020830189611ef7565b611fc36040830188611f06565b611fd06060830187611f06565b8181036080830152611fe28186611f5b565b905081810360a0830152611ff68185611f5b565b905061200560c0830184611af8565b98975050505050505050565b60006060820190506120266000830186611add565b81810360208301526120388185611f5b565b90506120476040830184611af8565b949350505050565b60006020820190506120646000830184611f06565b92915050565b600060208201905061207f6000830184611add565b92915050565b600061209082611a72565b9050919050565b6120a081612085565b81146120ab57600080fd5b50565b6000813590506120bd81612097565b92915050565b600080600080608085870312156120dd576120dc611a48565b5b60006120eb878288016120ae565b94505060206120fc87828801611b51565b935050604061210d87828801611b51565b925050606085013567ffffffffffffffff81111561212e5761212d611a4d565b5b61213a87828801611dbc565b91505092959194509250565b7f4272616e6420616c726561647920726567697374657265640000000000000000600082015250565b600061217c601883611f20565b915061218782612146565b602082019050919050565b600060208201905081810360008301526121ab8161216f565b9050919050565b7f4e487b7100000000000000000000000000000000000000000000000000000000600052602260045260246000fd5b600060028204905060018216806121f957607f821691505b60208210810361220c5761220b6121b2565b5b50919050565b60008190508160005260206000209050919050565b60006020601f8301049050919050565b600082821b905092915050565b6000600883026122747fffffffffffffffffffffffffffffffffffffffffffffffffffffffffffffffff82612237565b61227e8683612237565b95508019841693508086168417925050509392505050565b60006122b16122ac6122a784611b30565b611e86565b611b30565b9050919050565b6000819050919050565b6122cb83612296565b6122df6122d7826122b8565b848454612244565b825550505050565b600090565b6122f46122e7565b6122ff8184846122c2565b505050565b5b81811015612323576123186000826122ec565b600181019050612305565b5050565b601f8211156123685761233981612212565b61234284612227565b81016020851015612351578190505b61236561235d85612227565b830182612304565b50505b505050565b600082821c905092915050565b600061238b6000198460080261236d565b1980831691505092915050565b60006123a4838361237a565b9150826002028217905092915050565b6123bd82611f15565b67ffffffffffffffff8111156123d6576123d5611cbf565b5b6123e082546121e1565b6123eb828285612327565b600060209050601f83116001811461241e576000841561240c578287015190505b6124168582612398565b86555061247e565b601f19841661242c86612212565b60005b828110156124545784890151825560018201915060208501945060208101905061242f565b86831015612471578489015161246d601f89168261237a565b8355505b6001600288020188555050505b505050505050565b7f436c69656e7420616c7265616479207265676973746572656400000000000000600082015250565b60006124bc601983611f20565b91506124c782612486565b602082019050919050565b600060208201905081810360008301526124eb816124af565b9050919050565b7f596f75206861766520746f20626520612072656769737465726564204272616e60008201527f6400000000000000000000000000000000000000000000000000000000000000602082015250565b600061254e602183611f20565b9150612559826124f2565b604082019050919050565b6000602082019050818103600083015261257d81612541565b9050919050565b7f4d696e696d616c20707269636520697320312045544820746f2063726561746560008201527f204e465400000000000000000000000000000000000000000000000000000000602082015250565b60006125e0602483611f20565b91506125eb82612584565b604082019050919050565b6000602082019050818103600083015261260f816125d3565b9050919050565b7f4e487b7100000000000000000000000000000000000000000000000000000000600052601160045260246000fd5b600061265082611b30565b91507fffffffffffffffffffffffffffffffffffffffffffffffffffffffffffffffff820361268257612681612616565b5b600182019050919050565b60006060820190506126a26000830186611add565b6126af6020830185611add565b6126bc6040830184611f06565b949350505050565b600081546126d1816121e1565b6126db8186611f20565b945060018216600081146126f6576001811461270c5761273f565b60ff19831686528115156020028601935061273f565b61271585612212565b60005b8381101561273757815481890152600182019150602081019050612718565b808801955050505b50505092915050565b600060a08201905061275d6000830188611add565b61276a6020830187611f06565b6127776040830186611f06565b818103606083015261278981856126c4565b9050818103608083015261279d8184611f5b565b90509695505050505050565b7f596f75206861766520746f2062652061207265676973746572656420436c696560008201527f6e74000000000000000000000000000000000000000000000000000000000000602082015250565b6000612805602283611f20565b9150612810826127a9565b604082019050919050565b60006020820190508181036000830152612834816127f8565b9050919050565b7f4272616e6420616464726573732063616e6e6f74206265207a65726f00000000600082015250565b6000612871601c83611f20565b915061287c8261283b565b602082019050919050565b600060208201905081810360008301526128a081612864565b9050919050565b7f4e465420646f65736e2774206578697374000000000000000000000000000000600082015250565b60006128dd601183611f20565b91506128e8826128a7565b602082019050919050565b6000602082019050818103600083015261290c816128d0565b9050919050565b7f4e465420616c726561647920736f6c6400000000000000000000000000000000600082015250565b6000612949601083611f20565b915061295482612913565b602082019050919050565b600060208201905081810360008301526129788161293c565b9050919050565b7f496e73756666696369656e742066756e647320746f20627579204e4654000000600082015250565b60006129b5601d83611f20565b91506129c08261297f565b602082019050919050565b600060208201905081810360008301526129e4816129a8565b9050919050565b6000815490506129fa816121e1565b9050919050565b818103612a0f575050612ae7565b612a18826129eb565b67ffffffffffffffff811115612a3157612a30611cbf565b5b612a3b82546121e1565b612a46828285612327565b6000601f831160018114612a755760008415612a63578287015490505b612a6d8582612398565b865550612ae0565b601f198416612a8387612212565b9650612a8e86612212565b60005b82811015612ab657848901548255600182019150600185019450602081019050612a91565b86831015612ad35784890154612acf601f89168261237a565b8355505b6001600288020188555050505b5050505050505b565b600081905092915050565b50565b6000612b04600083612ae9565b9150612b0f82612af4565b600082019050919050565b6000612b2582612af7565b9150819050919050565b7f7472616e73666572206661696c65640000000000000000000000000000000000600082015250565b6000612b65600f83611f20565b9150612b7082612b2f565b602082019050919050565b60006020820190508181036000830152612b9481612b58565b9050919050565b6000612ba682611eb2565b9050919050565b612bb681612b9b565b82525050565b600060a082019050612bd16000830188612bad565b612bde6020830187611add565b612beb6040830186611f06565b612bf86060830185611f06565b612c056080830184611af8565b969550505050505056fea26469706673582212205898056da4532fadd46f4a000726e0775d4c51c5c7adad0b905b8c561171e9d964736f6c63430008180033",
  "linkReferences": {},
  "deployedLinkReferences": {}
}